:02000002B0004C
:1040000000400B0082610B00000006000C0005025E
:084010000401B51400000000DA
:04401800C85D0B0074
:10401C00034613F8012B002AFBD1181A01387047FC
:10402C0009480A49884208B505D0094A824202D09B
:10403C00121A01F0F2FD0748074A0021121A01F08A
:10404C00FAFD014808BD00BF3CE60320E8600B0008
:10405C00A8E60320A8E60320F0E7032070B5074E7E
:10406C00074C01F01DFDA41BA4080025AC4200D197
:10407C0070BD56F8043B98470135F7E7A0600B007C
:10408C00C4600B0000F038B808B500F093F9BDE837
:10409C00084001F0BDBC00F0F7BC00F0F5BC00F02E
:1040AC00FBBC0078B0FA80F0400970470123037024
:1040BC00704713B513438DF8003000223C2304469F
:1040CC0000F080FE204602B010BD38B504680546ED
:1040DC007CB16368013B63605BB9236820469B68D5
:1040EC009847A368013BA3601BB923682046DB6893
:1040FC009847284638BD000037B501F0B7FB4FF4A0
:10410C00E13101F0A1FB01F0B1FB01F0A4FB18B906
:10411C000A2000F0F1FCF6E71F4D20492A78204CCC
:10412C004FF000036846FFF7C4FF01A8FFF7CDFF6F
:10413C0001F004FD01220146204600F066FA2A78BF
:10414C0040B9034617496846FFF7B3FF01A8FFF7CC
:10415C00BCFFFEE74FF0000313496846FFF7A9FFC9
:10416C0001A8FFF7B2FF01F081FB2189102201F0B9
:10417C00CAF901F07BFB6189102201F0C4F901F04E
:10418C0075FBA1891022054601F0BDF9284603B044
:10419C00BDE8304001F0A1B9A8E60320DC5D0B00BE
:1041AC00B0E60320E75D0B00F85D0B0070B5724EB6
:1041BC007249734C8CB008A801F015FA0A223188A8
:1041CC0004A801F036FA04A908A801F05CFA6D49BC
:1041DC0001F065FA00252B462278016802A8FFF74A
:1041EC0068FF03A8FFF771FF04A801F0B1F908A854
:1041FC0001F0AEF9644908A801F0F5F90A227188BA
:10420C0004A801F016FA04A908A801F03CFA5F49C9
:10421C0001F045FA227801682B4602A8FFF749FF06
:10422C0003A8FFF752FF04A801F092F908A801F0C7
:10423C008FF9304600F050FA48B9227854490346B9
:10424C0008A8FFF736FF09A8FFF73FFF48E05149E0
:10425C0008A801F0C8F90A22B18804A801F0E9F90C
:10426C0004A908A801F00FFA4B4901F018FA2B46E3
:10427C002278016802A8FFF71CFF03A8FFF725FFAF
:10428C0004A801F065F908A801F062F9434908A8EF
:10429C0001F0A9F90A22F18804A801F0CAF904A9CD
:1042AC0008A801F0F0F93E4901F0F9F9227801680B
:1042BC002B4602A8FFF7FDFE03A8FFF706FF04A894
:1042CC0001F046F908A801F043F942F2107000F031
:1042DC0013FC344B1A681D2A02F1010102D019603B
:1042EC000CB070BD01AA0DF1060130461D6000F046
:1042FC000CFA18B922782C490346A1E72B4908A8D7
:10430C0001F071F910220DEB0200BDF8061001F05E
:10431C0090F904A908A801F0B6F92B462278016897
:10432C0002A8FFF7C6FE03A8FFF7CFFE04A801F012
:10433C000FF908A801F00CF91D4908A801F053F970
:10434C0010220DEB0200BDF8041001F072F904A963
:10435C0008A801F098F9227801682B4602A8FFF70B
:10436C00A8FE03A8FFF7B1FE04A801F0F1F808A815
:10437C0001F0EEF8B4E700BFB0E603200D5E0B00D1
:10438C00A8E60320135E0B00195E0B001F5E0B00EA
:10439C00245E0B003B5E0B00435E0B00465E0B0085
:1043AC00455E0B00ACE60320535E0B00735E0B0006
:1043BC00915E0B0008B5074800F075F930B901F0B3
:1043CC0055FABDE80840044901F093B8BDE808402F
:1043DC00FFF7ECBEB0E60320285E0B00024B03484F
:1043EC0001221A7000F09DB8A8E60320B0E6032065
:1043FC0042600022027220220170C260704710B528
:10440C00037A044653B12178606800F0FEFE6068C0
:10441C0000F003FFB0FA80F0400910BD012100F05C
:10442C0003F80028EFD1F8E738B5044640680D468C
:10443C0000F0BCFE0120207225B12046BDE83840BA
:10444C00FFF7DDBF38BD2DE9F843DDE908961F46BF
:10445C00C368154632449A420446884602D9002065
:10446C00BDE8F8830178406800F0CFFE7EB9606843
:10447C0003682A46DB68414698478542EFD160685D
:10448C00394600F0C6FEB0FA80F04009E8E7B9F111
:10449C00000FECD0606803683246DB6849469847E9
:1044AC008642DCD1E3E72DE9F041154604460E4681
:1044BC00D2B20178406800F096FE85420DD10027FB
:1044CC001FFA87F8A84507F1010709D2606803684D
:1044DC005B69984706F80800F2E70020BDE8F08118
:1044EC000120FBE72DE9F843074688461646994616
:1044FC000025B54212D2FA68741B944228BF1446A8
:10450C00331BAB4294BF4B460023224608EB0501FC
:10451C003846FFF7C8FF10B12544EAE70120BDE893
:10452C00F8830022026170470A44FF208A4211D0AE
:10453C0011F8013B5840082310F0800F03F1FF33B2
:10454C004FEA400018BF80F0310013F0FF03C0B2F7
:10455C00F2D1EBE770472DE9F047984682B0002383
:10456C00CDE9003302AF064601230069D7F820904D
:10457C0097F82440FFF767FF054690B3404600F0DC
:10458C00BBFA54B304EB4402D2B2D31D03F4FC7354
:10459C00ADEB030D0DF1080A306901235146FFF70D
:1045AC00A1FFF0B1013CE4B2A9F1020809EB44040B
:1045BC00022251463046FFF7B7FF9AF80230834289
:1045CC000FD19AF800209AF8013043EA022328F818
:1045DC00023FA0450AF1030AEAD12846BD46BDE8D0
:1045EC00F0870025F9E71FB520238DF80C30032345
:1045FC008DF80D300023CDE9003302220A2303A9E4
:10460C00FFF7A9FF05B05DF804FBF0B5044600699F
:10461C0085B00F46164610B11021FFF740FD102053
:10462C00FFF739FD054618B13A465821FFF7E0FE71
:10463C00256101212846FFF7F7FE10B9002005B0CF
:10464C00F0BD36238DF80C3082238DF80D3003230A
:10465C00019304F10803009302220A2303A92046C4
:10466C00FFF779FF0028E9D020238DF80C302F2399
:10467C008DF80D30012301930DF10E0300930222EE
:10468C000A2303A92046FFF766FF0028D6D0BDF801
:10469C000E3003F0F003202BD0D1002ECFD02046CB
:1046AC00FFF7A1FFCBE71FB520238DF808300823B7
:1046BC008DF80930022203AB009301920C2302A95E
:1046CC000446FFF748FF28B1BDF80E302380BDF833
:1046DC000C30638004B010BD1FB520238DF808305A
:1046EC0050238DF80930022203AB00930192192359
:1046FC0002A90446FFF72FFF28B1BDF80E30E38066
:10470C00BDF80C30A38004B010BD30B585B02023AB
:10471C008DF80830152314468DF80930022203ABAE
:10472C000D46009301920A2302A9FFF714FF28B14A
:10473C00BDF80C302B80BDF80E30238005B030BD99
:10474C0008B5024B1B685B6C019308BD4802030063
:10475C0008B5024B1B685B68019308BD1802030087
:10476C0008B5024B1B685B69019308BD1802030076
:10477C0008B5024B1B68DB68019308BD28020300D7
:10478C0008B5024B1B689B69019308BD2802030006
:10479C0008B5024B1B68DB69019308BD28020300B6
:1047AC0008B5024B1B681B6A019308BD2802030065
:1047BC0008B5024B1B685B6A019308BD2802030015
:1047CC0008B5024B1B689B6A019308BD28020300C5
:1047DC0008B5024B1B68DB6A019308BD2802030075
:1047EC0008B5024B1B681B6B019308BD2802030024
:1047FC0008B5024B1B681B6C019308BD2802030013
:10480C0008B5024B1B681B6D019308BD2802030001
:10481C0008B5024B1B685B69019308BD6402030079
:10482C0008B5024B1B689B68019308BD6802030026
:10483C0008B5024B1B68DB68019308BD68020300D6
:10484C0008B5024B1B68DB68019308BD3C020300F2
:10485C0008B5024B1B681B69019308BD3C020300A1
:10486C0008B5024B1B685B69019308BD3C02030051
:10487C0008B5024B1B689B69019308BD3C02030001
:10488C0008B5024B1B68DB69019308BD3C020300B1
:10489C0008B5024B1B689B6A019308BD3C020300E0
:1048AC0008B5024B1B681B6C019308BD3C0203004E
:1048BC0008B5024B1B681B68019308BD4C02030032
:1048CC0008B5024B1B685B68019308BD4C020300E2
:1048DC0008B5024B1B681B69019308BD4C02030011
:1048EC0008B5024B1B685B69019308BD4C020300C1
:1048FC0008B5024B1B689B69019308BD4C02030071
:10490C0008B5024B1B68DB69019308BD4C02030020
:10491C0008B5024B1B681B6A019308BD4C020300CF
:10492C0008B5024B1B685B6A019308BD4C0203007F
:10493C0008B5024B1B685B68019308BD200203009D
:10494C0008B5024B1B685B69019308BD200203008C
:10495C0008B5024B1B68DB6C019308BD20020300F9
:10496C0008B5024B1B685B6D019308BD2002030068
:10497C0008B5034B1B68D3F88830019308BD0000C1
:10498C002002030008B5034B1B68D3F89430019345
:10499C0008BD00002002030008B5024B1B685B69D0
:1049AC00019308BD4402030008B5024B1B681B6A47
:1049BC00019308BD4402030008B5024B1B68DB6B76
:1049CC00019308BD4402030008B5024B1B685B68E9
:1049DC00019308BD4002030008B5024B1B689B689D
:1049EC00019308BD4002030008B5024B1B68DB684D
:1049FC00019308BD4002030008B5024B1B681B69FC
:104A0C00019308BD4002030008B5024B1B685B69AB
:104A1C00019308BD4002030008B5024B1B689B695B
:104A2C00019308BD4002030008B5024B1B68DB690B
:104A3C00019308BD4002030008B5024B1B681B6ABA
:104A4C00019308BD4002030008B5024B1B681B6BA9
:104A5C00019308BD4002030008B5024B1B685B6B59
:104A6C00019308BD4002030008B5024B1B681B6C88
:104A7C00019308BD4002030008B5024B1B685B6C38
:104A8C00019308BD4002030008B5024B1B681B686C
:104A9C00019308BD1C02030008B5024B1B685B6840
:104AAC00019308BD1C02030008B5024B1B689B68F0
:104ABC00019308BD1C02030008B5024B1B68DB6A9E
:104ACC00019308BD1C02030008B5024B1B681B6B4D
:104ADC00019308BD1C02030008B5024B1B681B6C3C
:104AEC00019308BD1C02030008B5024B1B685B6CEC
:104AFC00019308BD1C0203000021FFF721BF10B574
:104B0C00836804460BB901F07FF8C3689847A36823
:104B1C001BB1032221462046984720461021BDE8B0
:104B2C001040FFF7BCBA10B58368044613B10322DA
:104B3C0001469847204610BD13B50B460246D0E9F6
:104B4C0000016C4684E8030093E8030082E803004C
:104B5C0094E8030083E8030002B010BD0248002370
:104B6C000360FFF7EDBD00BFC4E6032070470020D3
:104B7C00704710B510210446FFF791FA204610BD7E
:104B8C0008B5FFF7F6FF08BD30B500224FF69C7450
:104B9C00026084808D888C800C68858004600A603B
:104BAC0030BD10B504460068FFF776FF204610BDF7
:104BBC0038B5C468F4B12378022B03D104F10C008E
:104BCC00FFF7EFFF656835B12846FFF7ACFF102102
:104BDC002846FFF764FAA56835B12846FFF7A3FF0E
:104BEC0010212846FFF75BFA20461421BDE8384017
:104BFC00FFF755BA38BD0B6803604B68436013B1BF
:104C0C005A6801325A60704737B5044668460D46FB
:104C1C00FFF7F1FF009B019A23606260002301A85B
:104C2C0001930093FFF751FA35B1281DFFF74DFAA8
:104C3C0008212846FFF733FA204603B030BD8268BE
:104C4C0010B50AB900F0E0FFBDE81040C368184782
:104C5C0008B5006800F11001FFF7F1FF08BD82688C
:104C6C0010B50AB900F0D0FFBDE81040C368184772
:104C7C0008B5006800F11001FFF7F1FF08BD000056
:104C8C0038B500230446036010200D46FFF703FAE5
:104C9C0028B10123C0E90133024B0360C5602060D9
:104CAC00204638BDA85E0B0038B5002383608B68A6
:104CBC0004460D462BB102229847EB68E360AB68C3
:104CCC00A360204638BD0000F0B589B00468684682
:104CDC00FFF75AFF4FF00203D4E84F2F002A03D1FD
:104CEC00C4E8413F0029F7D125D104F10C056946F0
:104CFC002846FFF749FFBFF35B8F01236370002049
:104D0C0004F10803BFF35B8F53E8006F43E8000224
:104D1C00002AF9D1BFF35B8F6EB1FFF719FE78B1A2
:104D2C0029463046FFF78BFF3046FFF7FCFE10217B
:104D3C003046FFF7B4F96846FFF733FF09B0F0BD12
:104D4C00314602A8FFF7B0FFE068B4F9105008B183
:104D5C0000F0B0FF06901020ADF81C50FFF79BF947
:104D6C000546E8B1002787601820FFF794F9044640
:104D7C0088B10146876002A8FFF7DEFE049BA2689B
:104D8C00A360059B049206A9E268E36004F110009D
:104D9C000592FFF7F9FE084BEB60084B2C60AB60FB
:104DAC0006A8FFF7FEFE02A8FFF7BDFE002229466B
:104DBC000348FFF7D5FDB7E75D4C0B00E14E0B0048
:104DCC000B4B0B002DE9F04F8BB005469DF850A016
:104DDC000F4690469946FFF7DFFD07AE834638BB7A
:104DEC004FF62E73059005A93046ADF81830FFF735
:104DFC00CBFE1420FFF74FF9044648B10223037091
:104E0C000123C0E901BB437031460C30FFF7BCFEF7
:104E1C002846214640F8044BFFF732FF3046FFF797
:104E2C00C0FE05A8FFF7BDFE28460BB0BDE8F08F0D
:104E3C000C2300241420CDE908440793FFF72BF929
:104E4C00014618B1C0E901440470447004A80391F0
:104E5C00FFF716FF1E4B08930820FFF71CF90446BA
:104E6C0010B103A9FFF7C7FE00965FFA8AF34A4612
:104E7C00414638460994FFF797FDB8B9039B5B7818
:104E8C0003F0FF0293B94FF69C7305A903A8059292
:104E9C00ADF81830FFF718FF05A8FFF782FE05A83C
:104EAC000999FFF7B1FE06A8FFF70FF903A905A8AA
:104EBC00FFF7A1FE059B069A2B606A60002306A8EB
:104ECC0006930593FFF701F904A8FFF7FEF8ABE78B
:104EDC005D4F0B00012AF8B5054603D10B68036042
:104EEC000020F8BD022A10D0032AF9D10468002C46
:104EFC00F6D004F11000FFF754FE2046FFF713FE26
:104F0C0018212046FFF7CBF8EAE718200E68FFF7C8
:104F1C00C2F8044650B13146FFF7C6FE3069B6F907
:104F2C00147008B100F0C6FE2061A7822C60D7E790
:104F3C0038B5002383608B6804460D462BB10222E2
:104F4C009847EB68E360AB68A360204638BD00006F
:104F5C00F0B589B004460D4601A81146FFF754FE82
:104F6C00A4B124B21DB1284600F0A4FE054601A848
:104F7C0003A90395ADF81040FFF7A6FE03A8FFF7B1
:104F8C0010FE02A8FFF7A1F809B0F0BD019D0123A6
:104F9C00D5E84F2F002A03D1C5E8413F0029F7D1AE
:104FAC00EFD12B73BFF35B8F6B702B1DBFF35B8F3C
:104FBC0053E8006F43E80042002AF9D1BFF35B8F3E
:104FCC00002EDED02046FFF7C3FC074660B105F18A
:104FDC000C013046FFF743FE3046FFF7A4FD1021CD
:104FEC003046FFF75CF8CCE7314603A8FFF7A0FF8B
:104FFC002B7B8DF81C301020FFF74DF80546D0B1F7
:10500C0087601420FFF747F8044678B187600146A3
:10501C0003A8FFF791FD059BA268A360069B059270
:10502C00E268E3609DF81C3006922374064BEB603B
:10503C00064B2C60AB6003A8FFF775FD00222946D8
:10504C000348FFF78DFCC7E77D4C0B0061500B004C
:10505C000B4B0B00012A70B5044603D10B6803609F
:10506C00002070BD022A0CD0032AF9D10468002C50
:10507C00F6D02046FFF757FD14212046FFF70FF816
:10508C00EEE714200E68FFF706F8054620B131460E
:10509C00FFF74EFF337C2B742560E1E7002240685C
:1050AC001146FFF7C9BC002240681146FFF7D4BC7B
:1050BC0040680022FFF7C8BC4068002281F0010163
:1050CC00FFF7B2BC002340681A461946FFF7A4BC90
:1050DC00002340681A461946FFF796BC0022406828
:1050EC001146FFF789BC002240681146FFF774BCDB
:1050FC00406800220221FFF777BC002340681A4663
:10510C00FFF762BC024B03225A60024A1A607047D6
:10511C00C8E60320C45E0B007047F8B5064615467A
:10512C000C468F18BC4206D0336814F8011B9B68E0
:10513C0030469847F6E72846F8BD007C0022FFF77A
:10514C002FBB007C0021FFF733BB007C0021FFF755
:10515C0037BB007C0021FFF73BBB007C0021FFF735
:10516C003FBB10B514210446FEF799FF204610BD35
:10517C0038B5044615464FF47A730022C4E901236E
:10518C00094B2174084623602946FFF731FBBF30D9
:10519C0008D16B69DB0705D56868FFF77DFCE8680B
:1051AC00FFF77AFC204638BD005F0B000023007C23
:1051BC001A461946FFF7DCBA7FB500221423CDE955
:1051CC000122ADF804300B788DF808304B6803934E
:1051DC00CB680493007C0B7A059301A9FFF710FBB5
:1051EC0007B05DF804FB1FB5003B8DF800104FF0C5
:1051FC006401039118BF0123694601928DF80830B0
:10520C00FFF7DAFF05B05DF804FB007C0022FFF726
:10521C00B7BA007C0022FFF7BBBA0121FFF7F9BF38
:10522C00704710B518210446FEF739FF204610BD13
:10523C00F0B5037D062B8DB00E4600F104074FF040
:10524C00000412D000F1080515F8011D0A223046A1
:10525C0000F059F9AF42044419D0002CF4D02E219F
:10526C00304600F037F90444EEE72F236A463946FE
:10527C000A208DF80040FFF7CBFA6846FEF7C8FE0F
:10528C0033680246DB686946304698470446204638
:10529C000DB0F0BD10B5054B0446112240F8043B8F
:1052AC00002100F0C8FC204610BD00BF285F0B0099
:1052BC000346074A10B543F8042B01F1100251F8CC
:1052CC00044B43F8044B9142F9D10A781A7010BD83
:1052DC00285F0B0010B59DF8084044EA032343EA0D
:1052EC00024242EA016104234160037510BD0000D3
:1052FC0007B5064B0360CB7800938B784A78097816
:10530C00FFF7E8FF03B05DF804FB00BF285F0B005C
:10531C00014B024A1A607047D0E60320345F0B0041
:10532C00002340681A46FFF74FBB40680022022159
:10533C00FFF75ABB002240681146FFF74DBB002215
:10534C0040681146FFF758BB002340681A461946BF
:10535C00FFF75ABB002340681A461946FFF75CBB9F
:10536C0040680021FFF780BB40680021FFF784BB39
:10537C004068002281F00101FFF756BB4068002213
:10538C00FFF762BB002240681146FFF765BB0022A5
:10539C0040681146FFF750BB2DE9F04395B0144619
:1053AC000D460746FFF776FF00211C220DA8009141
:1053BC0000F041FC40230C9320466B460CAA0021C4
:1053CC00FFF736FA044600284BD1024601216868E3
:1053DC00FFF712FB0221804622466868FFF70CFBA0
:1053EC00009E81462146002E3BD0002939D173689E
:1053FC00022B03D00A2B11D0F669F4E7B8F1000F99
:10540C00FAD0716906A8043107ADFFF771FF0FCD13
:10541C003C1D0FC42B6823704146EDE7B9F1000F1A
:10542C00EAD07469102201A800F005FC06238DF85F
:10543C00143001AD04F108031834186859682A4671
:10544C0003C20833A3421546F7D101A906A807AD3C
:10545C00FFF72EFF0FCD3C1D0FC42B682370494660
:10546C00CAE70098FFF7DCF9384615B0BDE8F083C1
:10547C00024B034A1A6000225A607047D4E603209C
:10548C00405F0B00F8B506460D468F180024BD4250
:10549C000CD0336815F8011B9B6830469847031EE7
:1054AC0001DB1C44F3E7002C08BF1C462046F8BD6A
:1054BC0013B50446084659B10191FEF7A9FD2368BE
:1054CC000199DB680246204602B0BDE8104018473F
:1054DC0002B010BD03689B68184738B50D2105460E
:1054EC00FFF7F8FF0A2104462846FFF7F3FF204494
:1054FC0038BD38B50546FFF7DBFF04462846FFF7F5
:10550C00ECFF204438BD30B58BB00023012A8DF858
:10551C00243098BF0A2209AC0D46B1FBF2F101FB15
:10552C00125303F0FF03092B94BF30333733DBB234
:10553C00AA4204F8013DEFD92146FFF7B9FF0BB0A1
:10554C0030BD0000014B00229A607047DCE603205E
:10555C0010B504460068FFF79FFA204610BD10B541
:10556C000446006808B1FFF797FA0023C4E9013339
:10557C00236010BD38B504460D4600680131FFF7B5
:10558C0093FA10B1C4E90005012038BD10B50368C9
:10559C00044623B143688B4201D3012010BD204641
:1055AC00FFF7E8FF0028F9D0A368002BF5D122689B
:1055BC001370F2E737B50D46114601920446FFF71A
:1055CC00E5FF019A28B92046FFF7C9FF204603B032
:1055DC0030BDA2602946206800F01FFB2268A3683A
:1055EC000021D154F2E7002313B5C0E9003304467F
:1055FC008360037341B108460191FEF709FD0199DF
:10560C0002462046FFF7D6FF204602B010BD13B568
:10561C00044659B108460191FEF7FAFC019902467D
:10562C002046FFF7C7FF204602B010BDFFF797FFDB
:10563C00F9E710B504468AB00023C4E90033A3602F
:10564C002373084601A900F0ABF901A92046FFF726
:10565C00DEFF20460AB010BD70B505460E4609B9EE
:10566C00002070BD6AB1846814442146FFF78EFF98
:10567C000028F5D02868AB683146184400F012FBBE
:10568C00AC600120EDE710B58A6809680446FFF7A5
:10569C00E3FF10B92046FFF762FF204610BD13B59B
:1056AC00044629B92046FFF75AFF204602B010BD28
:1056BC0008460191FEF7ACFC019902462046FFF723
:1056CC00CBFF0028EED0F0E7054B02221A60054B09
:1056DC00054A9A600020C3E90000FFF729B900BF12
:1056EC00F8E60320ECE603200000FFFF024B1A68EB
:1056FC00024B1A60704700BF3CE60320FCE6032017
:10570C0070474174704708B5007CFFF7C1F820EA78
:10571C00E07008BD08B5007CFFF79AF820EAE0704D
:10572C0008BD08B5007CFFF7A3F840EAE07008BD9F
:10573C0008B5007CFFF794F840EAE07008BD007CE7
:10574C00FFF79EB837B5457C04462DB1207C03B0DD
:10575C00BDE83040FFF774B8007C0191FFF798F872
:10576C0000280199F2DC284603B030BD10B5142195
:10577C000446FEF794FC204610BD000010B54FF413
:10578C007A730446084611460022C4E90123044BEF
:10579C002360012320746374FFF782F8204610BD48
:1057AC00985F0B00417470477047704708B5002133
:1057BC00007CFFF79DF840EAE07008BD08B50121B8
:1057CC00007CFFF795F840EAE07008BD08B5007C56
:1057DC00FFF786F820EAE07008BD08B5007CFFF7FB
:1057EC0077F820EAE07008BD13B50446007C0191FF
:1057FC00FFF776F80028019901DC607C20B1207C51
:10580C00FFF77EF820EAE07002B010BD007CFFF7D5
:10581C007FB810B514210446FEF741FC204610BD9C
:10582C0010B54FF47A73044608460021C4E90113FD
:10583C00044B23600123207463741146FFF738F87E
:10584C00204610BDC85F0B00007C0022FFF738B863
:10585C00007CFFF765B8FFF7FBBF10B514220446B8
:10586C00002100F0E8F9204610BD000010B50F4CE7
:10587C0088B003A8FFF7F1FF2178BFF35B8F11F01D
:10588C0001010FD120460191FEF70BFC019948B1A3
:10589C0003AA0748FFF7C4FF2046FEF707FC05489C
:1058AC0000F0B5F9024808B010BD00BF00E70320B6
:1058BC0004E70320B5570B00002240681146FFF7A0
:1058CC009BB8002240681146FFF7B6B8002240682A
:1058DC001146FFF7C1B840680022FFF7B5B8406821
:1058EC00002281F00101FFF79FB8002340681A469F
:1058FC001946FFF791B8002340681A461946FFF77E
:10590C0083B8002240681146FFF766B84068002251
:10591C000221FFF769B8002340681A46FFF754B814
:10592C00024B04225A60024A1A60704718E703209F
:10593C00F85F0B0010B50446FEF76AFB013823181C
:10594C002046834206D90278197800F8011B03F827
:10595C000129F6E710BD70B50C46911E22291DD801
:10596C00254630B9234430229D4210D205F8012B34
:10597C00FAE7B0FBF2F602FB1600C1B2092894BF9D
:10598C0030315731C9B205F8011B3046E9E7002325
:10599C0020462B70FFF7CEFF204670BD0020FCE7A1
:1059AC0038B5031E0C4615460EDAB3F1004F4FF016
:1059BC002D0214BF5842184601230A702A46194476
:1059CC00FFF7C9FF204638BD0123F9E7014B1860EA
:1059DC00704700BF40E6032008B50B4B43B1FFF7FF
:1059EC0045FF03681B699847002801DDAFF3008071
:1059FC00064B43B100F0E2F803681B699847002896
:105A0C0001DDAFF3008008BD0000000000000000C5
:105A1C0008B5FFF7E1FFFEF7A3FE014B186008BDC8
:105A2C0028E703200548064A064908B5121A00F073
:105A3C00F4F8054B054A1A6008BD00BF00F40320BA
:105A4C0004F4032054610B0000F403201E1C279A5D
:105A5C0007B5002300931A466FF07701FEF792FF0B
:105A6C0003B05DF804FB000007B543880A2B08D08F
:105A7C00502B0BD1094B1B684BB103B05DF804EBF9
:105A8C001847FFF7E5FF03B05DF804FB0023009314
:105A9C001A466FF07701FEF775FFF4E724E7032051
:105AAC0010B512480021FFF71FF8114B1A68114B63
:105ABC009A42114B0CBF012200221A7001D0FFF741
:105ACC00B1FFFEF745FE044600F0BEF80B4B13B1D8
:105ADC002046AFF3008000210848FEF76DFFBDE8BB
:105AEC00104007480021FEF743BF00BFD9590B00F7
:105AFC0000F403201E1C279A20E70320000000005E
:105B0C00755A0B007047000038B50A4B036001232F
:105B1C00044643610849202000F074F82025606099
:105B2C000549A560284600F06DF8C4E90305204638
:105B3C0038BD00BF180001002C600B0030B50E4DB5
:105B4C002978BFF35B8F11F0010487B011D128467F
:105B5C00FEF7A7FA68B16846FFF7D6FF6A462146FA
:105B6C000648FFF705FB2846FEF7A0FA044800F0AC
:105B7C004EF8024807B030BD2CE7032030E7032075
:105B8C00115B0B007047000038B5044614252A46FB
:105B9C00002100F050F82580402507492581284632
:105BAC00258200F02FF804496060284600F02AF89E
:105BBC00E060204638BD00BF2C600B0030B50E4DA8
:105BCC002978BFF35B8F11F0010487B011D12846FF
:105BDC00FEF767FA68B101A8FFF7D6FF01AA2146C4
:105BEC000648FFF7CBFD2846FEF760FA044800F0A4
:105BFC000EF8024807B030BD44E7032048E7032005
:105C0C00915B0B00FEF749BA08B5FEF755FF002370
:105C1C0001461A46184600F06BB80A44914200F14E
:105C2C00FF3300D1704710B511F8014B03F8014F49
:105C3C009142F9D110BD02440346934200D1704702
:105C4C0003F8011BF9E7000038B5104B1D68AB6B6E
:105C5C000446B3B91820FEF717FF0246A86320B913
:105C6C000B4B0C484221FEF737FF0B490B4BC0E99D
:105C7C0000130B4B83600B23838100210120C2E9AD
:105C8C000401AB6B00221C615A6138BD40E6032055
:105C9C002D600B0044600B000E33CDAB34126DE65F
:105CAC00ECDE0500034611F8012B03F8012B002A4A
:105CBC00F9D17047024B0146186800F003B800BFD9
:105CCC0040E6032037B5044608460D46FEF7A0F91A
:105CDC00421C114620460192FEF7F6FE044618B10E
:105CEC00019A2946FFF799FF204603B030BD00000A
:105CFC002DE9F843DFF8B8800646D8F800001F46B7
:105D0C000D46914600F056F8254B1C6834B9254CCD
:105D1C001C60254B13B11B68C4F8883063681F2BBB
:105D2C0007DDD8F8000000F047F84FF0FF30BDE871
:105D3C00F8834EB3D4F8880088B91C4B23B9D8F833
:105D4C00000000F038F8F0E74FF48470FEF79CFE8A
:105D5C000028F4D00023C0E94033C4F888006368FD
:105D6C0040F8239001229A4000EB8301D0F80031D7
:105D7C001343C0F80031022EC1F8807002BFD0F876
:105D8C0004311343C0F804316368D8F800005A1C7E
:105D9C000233626044F8235000F00EF80020C6E78E
:105DAC00E8E703205CE7032000000000954A0B00A5
:105DBC00A4E6032070477047704700002D400B008D
:105DCC0069400B0091400B0095400B000000000057
:105DDC00534750333020746573740053656E736F82
:105DEC0072206E6F7420666F756E6400466F756EF0
:105DFC00642053475033302073657269616C2023E3
:105E0C000054564F43200020707062090065434FC8
:105E1C003220002070706D00526177204D656173E7
:105E2C007572656D656E74206661696C656400528F
:105E3C006177204832200020090052617720457498
:105E4C0068616E6F6C20004661696C656420746FCC
:105E5C002067657420626173656C696E652072657C
:105E6C006164696E6773002A2A2A2A426173656C21
:105E7C00696E652076616C7565733A2065434F32A7
:105E8C003A2030780020262054564F433A20307860
:105E9C00000000000000000000000000794B0B0027
:105EAC007F4B0B00BD4B0B008D4B0B007B4B0B004A
:105EBC00000000000000000007510B00FD500B001B
:105ECC00F3500B00E9500B00DD500B00D1500B00D0
:105EDC006D530B0075530B00C5500B00BD500B00E0
:105EEC00B3500B00A9500B00A5530B000000000091
:105EFC000000000025510B006F510B0047510B00A7
:105F0C0027510B004F510B0057510B005F510B00E9
:105F1C0067510B0000000000000000003D520B0018
:105F2C002D520B002F520B0061707000000000000E
:105F3C00000000002D530B0037530B0041530B0096
:105F4C004B530B0055530B0061530B006D530B005F
:105F5C0075530B007D530B0089530B0091530B00B1
:105F6C009B530B00A5530B0025592D256D2D256436
:105F7C005425483A254D3A2553257A0061736374AC
:105F8C00696D650000000000000000000D570B005B
:105F9C0079570B0051570B0091540B0021570B00F4
:105FAC003D570B002F570B004B570B000F570B0097
:105FBC0013570B000000000000000000B7570B0047
:105FCC001F580B00F5570B0091540B00E7570B00B3
:105FDC00B9570B00C9570B0019580B00D9570B00B8
:105FEC00B1570B00000000000000000023590B000B
:105FFC0019590B000F590B00C5580B0003590B0016
:10600C00F7580B006D530B0075530B00EB580B003E
:10601C00E3580B00D9580B00CF580B00A5530B00BD
:10602C00005245454E54206D616C6C6F6320737546
:10603C0063636565646564002F746D702F6A656EAB
:10604C006B696E732D4743432D31302D706970652C
:10605C006C696E652D34385F323032303131323408
:10606C005F313630363138303633392F7372632F17
:10607C006E65776C69622F6E65776C69622F6C69DF
:10608C0062632F7374646C69622F72616E642E6329
:10609C0000000000E9430B00694B0B0011510B0091
:1060AC001D530B007D540B0051550B00D5560B00A6
:0860BC00F9560B002D590B00F1
:1060C400040000001400000003000000474E5500C7
:1060D400952994289A10A8E65B9EE1AF82524E4D12
:0460E4007D37ADE671
:1060E800885F0B0044E60320000000000000000069
:1060F8000000000000000000000000000000000098
:106108000000000000000000000000000000000087
:106118000000000000000000000000000000000077
:106128000000000000000000000000000000000067
:106138000000000000000000000000000000000057
:0C6148000000000000000000ECE7032055
:046154000000000047
:10615E0000000102030405060708090A0B0C0D0EC8
:10616E000F101112131415161718191A1B1C1D1EB9
:04617E001F202800B6
:046182007856341205
:04000003B000401CED
:00000001FF
