:02000004085F93
:10A0000000A05F08FCFF5F080000060020000501BB
:08A010000401B514000000007A
:10A018000E480F4908B5884205D00E4A824202D040
:10A028000D4B121A98470D480D4A00210D4B121A74
:10A0380098470D480D49884205D00D4A824202D002
:10A04800054B121A9847014808BD00BF80AD07109C
:10A0580008F95F08F0AD07102D0D1110F0AD0710CD
:10A06800E8AF0710A10E111078A73F0288A05F087B
:0CA07800F8FF3F0219A05F080000000084
:08A088007CA05F08D4DE3F025A
:10A09000034613F8012B002AFBD1181A0138704728
:10A0A00070B503F031F90025054E064CA41BA40839
:10A0B000AC4200D170BD56F8043B98470135F7E734
:10A0C000D4FF3F02F8FF3F0200F022B808B500F0CD
:10A0D000BFFABDE8084003F0CFB802F017B902F0AC
:10A0E00015B902F021B900000C2008B5024A034955
:10A0F00001F0D8FFFEE700BFE1C23F02E4DE3F020D
:10A100000078B0FA80F0400970470123037070476F
:10A1100008B503F021F84FF4E13103F00BF8F0211A
:10A120000F484FF4A07201F0BDFA00210C4800F076
:10A130009DFB03F011F803F004F818B90A2002F0AF
:10A1400039F9F6E703F096F901220146054801F0D6
:10A15000B0FC00B9FEE73220BDE8084002F02AB9A1
:10A1600020AE07100CAE071010B50F4C0F4920465B
:10A1700000F025FE4FF0FF336361002320460321EA
:10A18000E37600F016FE0A4B20460A49236102F0EE
:10A1900019FE094B20460949236102F013FEBDE870
:10A1A0001040322002F006B920AE071064DF3F02F3
:10A1B0002D004600F9DE3F020F00EB00FDDE3F02FE
:10A1C000F7B53C254FF6FF771F263D4CCDE90057EC
:10A1D000204678235F22002100F0E7FF2046CDE9EA
:10A1E000005678235F22792100F0DFFF2046CDE979
:10A1F000005778234FF48272002100F0D6FF2046EA
:10A20000CDE9005678234FF48272792100F0CDFF1A
:10A210000023E3764FF01F132A4A2B4D20462B498B
:10A22000C4E9042300F0CBFD2046012100F0C1FD6C
:10A230000A226988204602F0E2FD204602F0C9FDAC
:10A24000234B20462349236102F0CFFD224B0A22F3
:10A2500029882046236102F0D2FD204602F0B9FD94
:10A260001E4B20461E49236102F0BFFD4FF0FF3315
:10A270001C490A22C4E904132046A98802F0BFFD44
:10A28000204602F0A6FD184B20461849236102F033
:10A29000ACFD174B0A22E9882046236102F0AFFD8E
:10A2A000204602F096FD134B20461349236102F02D
:10A2B00089FD322003B0BDE8F04002F07BB800BF5A
:10A2C00020AE0710190078000CAE071070DF3F02B7
:10A2D000190091003FDF3F0219001D0119003601EE
:10A2E00002DF3F02960078009600910008DF3F02EF
:10A2F00096001D01910036010EDF3F0270B5B24D90
:10A3000086B0284601F023FC38B902F025FFAF499A
:10A3100006B0BDE8704002F068BD2B88AC4CDC2B69
:10A3200058D826680EBB02F017FFAA4902F04AFD72
:10A3300002F012FF0A22298802F061FD02F00CFFF0
:10A34000A54902F03FFD5F234FF4FC6CA522CDE947
:10A35000003C3146F023A14800F027FF0123C4E967
:10A360000266C4E90036FFF72BFF6B88B3F57A7FEE
:10A3700000F2A9809A4E3468FCB902F0EDFE9949CA
:10A3800002F020FD02F0E8FE0A22698802F037FDA3
:10A3900002F0E2FE944902F015FD5F234FF4FC6CDD
:10A3A0002246CDE9003C2146F0238C4800F0FDFE1A
:10A3B0000123C6E90034B460F4608C4B1A681D2A8E
:10A3C00002F1010100F01481196006B0BDE870408F
:10A3D000FFF7CABEA3F1DD02B2F5DC7F23D26668C7
:10A3E000002EC2D102F0B8FE7A4902F0EBFC02F076
:10A3F000B3FE0A22298802F002FD02F0ADFE764982
:10A4000002F0E0FC5F234FF6E070A522CDE90030BA
:10A410003146F023714800F0C8FE0123C4E901363B
:10A420002660E660A1E76FF4257140F201320B442B
:10A430009BB2934222D8A668002E96D102F08CFEE1
:10A44000644902F0BFFC02F087FE0A22298802F06C
:10A45000D6FC02F081FE604902F0B4FC5F234FF4A9
:10A460007C423146CDE900325C48F023A52200F061
:10A470009CFE0123C4E90066A360D2E7E668002ED3
:10A480007FF473AF02F068FE524902F09BFC02F0C9
:10A4900063FE0A22298802F0B2FC02F05DFE4E49FA
:10A4A00002F090FC5F234FF4784EA522CDE9003EE8
:10A4B0003146F023494800F078FE0123C4E90066E4
:10A4C000A660E36051E76FF47A769A19B2F57A7F65
:10A4D00023D2434E7468002C7FF46FAF02F03CFE31
:10A4E000404902F06FFC02F037FE0A22698802F050
:10A4F00086FC02F031FE3C4902F064FC4FF6E07548
:10A500005F232246CDE900352146F023334800F091
:10A510004CFE0123346073604DE76FF4FA6040F63F
:10A52000B7311A1892B28A4222D82D4EB468FCB9BB
:10A5300002F012FE2B4902F045FC02F00DFE0A2249
:10A54000698802F05CFC02F007FE274902F03AFC41
:10A550005F234FF47C412246CDE900311F48F023B0
:10A56000214600F022FE0123C6E90044B36023E740
:10A5700041F2873293427FF620AF194EF468002CE7
:10A580007FF41BAF02F0E8FD164902F01BFC02F05D
:10A59000E3FD0A22698802F032FC02F0DDFD124977
:10A5A00002F010FC5F234FF478422146CDE90032DF
:10A5B0000A48F023224600F0F8FD0123C6E90044D2
:10A5C000B460F360F9E600BF0CAE071016DF3F027F
:10A5D00070AE071029DF3F0231DF3F0220AE0710C7
:10A5E000F4AD071037DF3F023EDF3F0204AE071035
:10A5F000002214481A600DF10E0103AA01F0C0FAFE
:10A60000024600287FF4E1AE0F4B10491B7804A8E6
:10A610008DF800303C2302F04FF8059C7CB1636854
:10A62000013B63605BB9236820469B689847A36839
:10A63000013BA3601BB923682046DB68984706B03E
:10A6400070BD00BF0CAE0710F0AD071043DF3F0236
:10A6500038B5FFF753FE01F0D9FA42F20F72054DFB
:10A6600004462B68C31A934202D9FFF7A9FD2C6058
:10A6700038BD00BF08AE0710012208B5064B1221F5
:10A680001A7006480623052201F002F8BDE80840CA
:10A69000034801F09AB900BFF0AD071020AE0710D3
:10A6A0000CAE07102DE9F04F1F4685B0BDF938807C
:10A6B000A7EB010AA8EB0209B9F1000FB8BFC9F175
:10A6C0000009BAF1000FB8BFCAF1000AD1458346AC
:10A6D0000C461546BDF83C3004DD3A462C4647464C
:10A6E0000D469046BC4205DD2A4645469046224628
:10A6F0003C4617463E1BB2B20092A8EB050282EA26
:10A70000E271A1EBE271C6F3C03202FA86F645456A
:10A71000B4BF01224FF0FF32019176100292BC4289
:10A720001CDCDBF80020D145D2F81880C7BF2946D1
:10A7300022462A46214603935846C047019A039B66
:10A74000B61AB1B236B2002E05DA029A1544009A52
:10A750002DB2561836B2013424B2E0E705B0BDE898
:10A76000F08F704710B404682469A4465DF8044B68
:10A77000604730B4BDF8085004680295A46BA44645
:10A7800030BC604730B4BDF8085004680295E46BF3
:10A79000A44630BC604770B4BDF90C50BDF81060E1
:10A7A0000468CDE90356246CA44670BC60472DE9CB
:10A7B000F3411C46164605460F460368013CBDF8AA
:10A7C00020805B693444984724B22B68CDF804801C
:10A7D000009428469C6A32463B463946A0472846A4
:10A7E0002B68DB6A02B0BDE8F04118472DE9F34160
:10A7F000174604461D460E460368BDF820805B6977
:10A800009847CDE9007822686B1E33442046956A4C
:10A8100031463A461BB2A84720462368DB6A02B09D
:10A82000BDE8F04118472DE9F3471E4603680C4682
:10A830005B6905461746BDF92890BDF82C809847FE
:10A840002644B4422B680BDACDF800802146D3F8B9
:10A8500020A03A464B4628460134D04724B2F0E7C0
:10A860002846DB6A02B0BDE8F047184713B50191EE
:10A87000B0F90E1002680091146C0022B0F90C308F
:10A880001146A04702B010BD2DE9F7439942164684
:10A8900080460D461C46BDF92870BDF82C90026814
:10A8A00012D1BE42C2BF33463E461F46CDF8289065
:10A8B0007B1C946B9B1B324629464046A4461BB228
:10A8C00003B0BDE8F0436047BE420AD19942C2BF1F
:10A8D0000B4625461C46CDF82890631C5B1BD46BA9
:10A8E000E9E753699847CDE90079D8F80030404648
:10A8F0009F6A324623462946B8474046D8F800307A
:10A90000DB6A03B0BDE8F04318472DE9F34704467E
:10A910000F4616461D460368BDF82C805B69BDF9DD
:10A92000289098472368CDF8008032463946204663
:10A93000D3F824A02B46D047236809F1FF32CDF885
:10A940000080324439462046D3F824A012B22B4668
:10A95000D0472368CDF80080324639462046D3F8E8
:10A9600020A04B46D0476B1ED9192368CDF8008034
:10A9700020461D6A32464B4609B2A8472046236846
:10A98000DB6A02B0BDE8F0471847704701F00303E7
:10A99000B0F90A208376B0F90830C90759BF83811E
:10A9A000C2818281C381704730B5018100248181D9
:10A9B0004FF0FF31054D4281C281054A4460C0E934
:10A9C0000512056004610477046230BD38FC3F0263
:10A9D000010100012DE9F04F2DED028B91B01646DB
:10A9E0001F46026ABDF870308346BDF874809DF83A
:10A9F00078509DF87C4003910493002A40F0C58074
:10AA0000B0F90C308B4240F34C81B0F90E30B342B8
:10AA100040F34781062313FB0513002B40F34181CC
:10AA200006EBC403002B40F33C81037F1BB9AF2F1F
:10AA300084BF0137FFB2DBF8003058465B699847A6
:10AA40000522099200220592984A07EB8703D31842
:10AA50000C93B3B20693059A0C9B02FB05F99B5C21
:10AA60000793ABB20B93BDF80C300893039B19FA14
:10AA700083F90FFA89F308EE103A08234FF0000922
:10AA80000A93039B02EB030A0FFA8AFA079ADBF890
:10AA90000030D20752D5012D1FFA89F23ED1012C88
:10AAA0003CD19B6906991F46049B0A44514658466F
:10AAB00012B2B84709F101034FFA83F9079B5B080B
:10AAC00007930A9B013B13F0FF030A93DED1059F16
:10AAD00001377BB20593099B013B13F0FF030993F8
:10AAE000B9D1049B43450FD0012DDBF800303BD199
:10AAF000012C39D10899CDF8008005311C6A324605
:10AB00000823584609B2A0475846DBF80030DB6AF4
:10AB100011B0BDEC028BBDE8F04F184714FB02F2F8
:10AB200006990A44049901910094DB6918EE101A01
:10AB30001F4658462B4612B2B847BBE7049A424517
:10AB4000B8D0012D1FFA89F207D1012C05D19B69DC
:10AB500006991F460A444346A8E714FB02F20699E9
:10AB6000CDF804800A44DFE70B9AE40002EB82018F
:10AB7000089ACDF804800A4411460094DC693246F4
:10AB80002B46584609B2A047BEE7137A5168FF1A10
:10AB90001268FFB20B9231F8372001EBC70306921F
:10ABA0009A78012D0992DA7893F906A00C9293F91C
:10ABB00005200A9201D8012C57D9BDF928300893F5
:10ABC0000FFA8AF307934FF00008C1464746DBF8B7
:10ABD000003058465B699847B3B20E931AFA86F371
:10ABE0000F930C9B9F428FD2079B0E9A3B4403FB13
:10ABF000042300221BB208EE103A434605920F9A36
:10AC000002EB070A0FFA8AFA099A0599914241D292
:10AC10005A1CD2B25B070D9207D1069B06990B9A7C
:10AC200001339BB212F80190069319F0800F12D0F5
:10AC3000012DDBF80030BDF80C101AD1012C18D111
:10AC40000A9A9B691144059A1E4611445846524679
:10AC5000049B09B2B047059E4FEA49090136F3B299
:10AC600005935FFA89F90D9BCEE70023CDE9073301
:10AC7000A9E70598089A024402FB0511049A584670
:10AC8000CDE90042DB6918EE102A1E4609B22B46B8
:10AC9000B047E0E7099B013798445FFA88F8FFB2B4
:10ACA0009FE711B0BDEC028BBDE8F08F30F73F029B
:10ACB000F0B5026A04460B4685B0002A34D10A2951
:10ACC00008D1438A0282427E03EBC20363820120E1
:10ACD00005B0F0BD0D29FAD0E17E007E657E71B130
:10ACE0000621B4F9106011FB0061B4F90C60B142A7
:10ACF000C1BFB4F91210228201EBC5026282E28A5E
:10AD0000CDE902050192A28A20460092B4F9101002
:10AD1000B4F91220FFF75EFE237E228A03EB430381
:10AD200002EB43032382D2E70A2907D100230382DF
:10AD3000417E927A438A01FB0233C7E70D29C6D0D0
:10AD4000157AA942C3D3517A9942C0D351685D1B89
:10AD5000EDB201EBC505A87828B3E97819B3E17E17
:10AD6000267E677E91B195F905100844B4F910105C
:10AD700006FB0011B4F90C00814207DD002020829F
:10AD8000B4F91210927A02FB07126282E28A20461C
:10AD90000192A28ACDE902670092B4F91010B4F9C9
:10ADA0001220FFF717FE2979227E238A01FB023346
:10ADB000B8E7012938BF0121017641767047036A5F
:10ADC00029B113B9438A0633438201627047002BCD
:10ADD000FBD0438A063BF7E7002180B202F015BBA7
:10ADE000012180B202F011BB002180B202F00DBB44
:10ADF000012180B202F009BB002180B202F005BB44
:10AE0000012180B202F001BB38B5044612B209B28A
:10AE10001D46FFF7C9FD00220B4B204623609DF91C
:10AE2000183084F83C2084F83D309DF910302264BD
:10AE300084F83E309DF91430A4F8442084F83F3063
:10AE4000A264656238BD00BF90FC3F022DE9F0416D
:10AE500004460D4616461F46DFF84C8086B0D8E8FB
:10AE60008F0F10F001010BD140460591FFF748F913
:10AE7000059928B10B4801F0EDFF4046FFF745F971
:10AE80009DF93430324602939DF930302946CDE9A0
:10AE900000732046034BFFF7B7FF204606B0BDE81E
:10AEA000F08100BF84AE071080AE0710F8B50446ED
:10AEB000484F90F93E00002918BF0F46002816465B
:10AEC00009DB012180B202F08FFA94F93E000121E2
:10AED00080B202F09AFA94F93F00012180B202F0A8
:10AEE00083FA94F93F00012180B202F08EFA94F8BF
:10AEF0003C5085BB0123606A84F82C50276384F89A
:10AF0000343084F83560A66301F0AEFF94F93D005B
:10AF100000285EDB012180B202F066FA94F93D0060
:10AF2000012180B202F071FA642001F043FA94F931
:10AF30003D00002180B202F068FA642001F03AFA84
:10AF400094F93D00012180B202F05FFABDE8F840BB
:10AF5000C82001F02FBA012D20D194F924002946F0
:10AF600080B202F041FA94F92400002180B202F08C
:10AF70004CFA94F92600294680B202F035FA94F989
:10AF80002600002180B202F040FA94F92500002842
:10AF9000BCDB002180B202F027FAB7E794F9250064
:10AFA000012180B202F020FA94F92500012180B23B
:10AFB00002F02BFA94F926000028A7DB012180B2C9
:10AFC00002F012FA94F92600012180B202F01DFA73
:10AFD0009CE7F8BD0024F40090F83C3023B900F160
:10AFE0002801406A01F06EBF704710B50446FFF7B4
:10AFF000F3FF94F93E00002805DBBDE81040002176
:10B0000080B202F002BA10BD90F83C3013B9406A29
:10B0100001F03EBF704710B5044690F93E0000288D
:10B0200003DB012180B202F0F0F92046FFF7ECFFCC
:10B0300010BD10B5044690F92500002180B202F041
:10B04000E4F994F925000121BDE8104080B202F036
:10B05000DCB92DE9F04105460E4614467AB190F868
:10B060003C304FEA1128CFB25BB94146686A01F023
:10B0700097FF3946686A01F093FF013CF5D1BDE8BE
:10B08000F081012B1ED1B046102718F4004F95F91E
:10B09000240014D0FFF7ACFE95F92600013FFFF71E
:10B0A0009FFE4FEA480895F92600BFB2FFF794FECD
:10B0B0001FFA88F8002FE8D1013CE4D1DFE7FFF761
:10B0C00093FEE9E7B845DAD02846FFF7B2FF013C26
:10B0D000FAD1D4E72DE9F3411D460446BDF82030EE
:10B0E000BDF824600093036892B2D3F8548089B20B
:10B0F000ABB2BDF92070C0473146204605FB07F2D0
:10B1000002B0BDE8F041FFF7A4BF2DE9F341BDF95E
:10B110002040002B46D0002C44D0002B05DA013112
:10B1200011FA83F15B4209B21BB2B0F90C608E4296
:10B1300038DD002C05DA013212FA84F2644212B2D0
:10B1400024B2B0F90E5095422CDD01EB03081FFA32
:10B1500088F808F1FF3C0FFA8CFCBCF1000F21DBF2
:10B1600002EB040E1FFA8EFE0EF1FF373FB2002FE6
:10B1700018DB0029BCBF00210FFA88F3002ABCBFEE
:10B1800000220FFA8EF46645DCBF731A1BB2BD4273
:10B19000D8BFAC1ABDF82450D8BF24B2CDE90045C1
:10B1A000FFF798FF02B0BDE8F0812DE9F743804634
:10B1B0000C4615461E46BDF92870BDF82C90002B94
:10B1C00052D0002F50D0002B05DA013414FA83F44A
:10B1D0005E4224B236B2B8F90C30A34244DD002FEF
:10B1E00005DA013515FA87F57F422DB23FB2B8F97D
:10B1F0000E20AA4238DD04EB060E1FFA8EFE0EF179
:10B20000FF3000B200282FDB05EB070C1FFA8CFC87
:10B210000CF1FF3109B2002926DB002CBCBF002451
:10B220000FFA8EF6002DBCBF00250FFA8CF7834273
:10B23000DCBF1B1B1EB28A42D8F80030DCBF521B99
:10B2400017B240465B699847334640462A46214636
:10B25000CDE90079FFF73EFF4046D8F80030DB6AC1
:10B2600003B0BDE8F043184703B0BDE8F0832DE913
:10B27000F341171E06460C461D46BDF8208033DB01
:10B28000B0F90E30BB422FDD002D2DD005DA013490
:10B2900014FA85F46D4224B22DB2B6F90C30A342F3
:10B2A00022DD611989B24A1E12B2002A1CDB002C71
:10B2B000BCBF00240DB29342DCBF1B1B1DB2336820
:10B2C00030465B6998470123304600933A462B4647
:10B2D0002146CDF80480FFF7FDFE30463368DB6A77
:10B2E00002B0BDE8F041184702B0BDE8F0812DE999
:10B2F000F3410F1E064614461D46BDF8208031DB83
:10B30000B0F90C30BB422DDD002D2BD005DA013415
:10B3100014FA85F46D4224B22DB2B6F90E30A34270
:10B3200020DD611989B24A1E12B2002A1ADB002CF4
:10B33000BCBF00240DB29342DCBF1B1B1DB233689F
:10B3400030465B6998473046012322463946CDE9AD
:10B350000058FFF7BFFE30463368DB6A02B0BDE835
:10B36000F041184702B0BDE8F081002A73B526DB32
:10B37000B0F90E40944222DD002B20D005DA0131D5
:10B3800011FA83F15B4209B21BB2B0F90C408C4256
:10B3900015DDCE18B6B2751E2DB2002D0FDB0029BB
:10B3A000BCBF002133B2AC42D8BF631ABDF818400D
:10B3B000D8BF1BB2019401240094FFF78BFE02B0AA
:10B3C00070BD73B5002926DBB0F90C408C4222DD3C
:10B3D000002B20D005DA013212FA83F25B4212B25E
:10B3E0001BB2B0F90E40944215DDD618B6B2751EE8
:10B3F0002DB2002D0FDB002ABCBF002233B2AC42BD
:10B40000D8BFA31ABDF81840D8BF1BB2CDE900348D
:10B410000123FFF75FFE02B070BD70B590F83C30BD
:10B4200004460D4623B9BDE87040406A01F0B8BD3E
:10B43000012B18D108262B0694F9240010D5FFF70C
:10B44000D7FC94F92600FFF7CBFC013E94F92600C7
:10B45000FFF7C2FC6D0016F0FF06EDB2EBD170BD38
:10B46000FFF7C2FCEDE7FFF7E4FDF8E713B504468C
:10B4700090F93F000191FFF7BFFC20460199FFF7CB
:10B48000CCFF94F93F0002B0BDE81040FFF7B8BC14
:10B4900070B50D46036804465B69984755B194F84A
:10B4A00044102046FFF7E2FF23682046BDE87040C5
:10B4B000DB6A184794F84510F3E770B590F83C3014
:10B4C00005460C464BB9090A406A01F069FD686AF5
:10B4D000E1B2BDE8704001F063BD012B18D1102628
:10B4E000230495F9240010D5FFF782FC95F9260076
:10B4F000FFF776FC013E95F92600FFF76DFC64002E
:10B5000016F0FF06A4B2EBD170BDFFF76DFCEDE7BE
:10B51000FFF78FFDF8E7F7B5002904461E4617DB55
:10B52000B0F90C308B4213DD002A11DBB0F90E307C
:10B5300093420DDD0123056800936F6D92B289B2CD
:10B54000B8473146204603B0BDE8F040FFF7B5BF2D
:10B5500003B0F0BD2DE9F3410D1E044616461F460B
:10B5600020DBB0F90C30AB421CDD002A1ADBB0F94D
:10B570000E30934216DD03685B6998470123226809
:10B5800000932046D2F85480A9B2B2B2C0472046F8
:10B590003946FFF792FF20462368DB6A02B0BDE818
:10B5A000F041184702B0BDE8F08170B590F83C302A
:10B5B00004460D469BB9090E406A01F0F1FCC5F343
:10B5C0000741606A01F0ECFCC5F30721606A01F0F5
:10B5D000E7FC606AE9B2BDE8704001F0E1BC012B14
:10B5E00018D12026002D94F9240010DAFFF700FC72
:10B5F00094F92600FFF7F4FB013E94F92600FFF7CB
:10B60000EBFB16F0FF064FEA4505EBD170BDFFF7E7
:10B61000EBFBEDE7FFF70DFDF8E7704701F00301E5
:10B62000022970B50446817624D0032925D001294A
:10B6300014BFC025A02590F84C3090F84D2019BFBC
:10B64000A0F84030A0F84220A0F84020A0F84230F6
:10B65000236820465B69984720463621FFF706FF9E
:10B6600020462946FFF7D9FE23682046BDE87040F2
:10B67000DB6A184700250564EAE7002360250364B8
:10B68000E6E710B504465021FEF72BFD204610BD1D
:10B6900010B5044600F09AF8014B2046236010BD17
:10B6A00014FD3F0270B504460025002100F0E5F8C6
:10B6B000074B2046E3600749A4F84C5000F09AF885
:10B6C000236829462046BDE870401B6B184700BF21
:10B6D000F0004001E8FC3F02704770B501F0030143
:10B6E0000229044690F84C2090F84D30817620D005
:10B6F000032924D0012917BFC025A025A0F8402088
:10B70000A0F8423004BFA0F84220A0F840302368DF
:10B7100020465B69984720463621FFF7A7FE204662
:10B720002946FFF77AFE23682046BDE87040DB6AB1
:10B7300018470025A0F84020A0F84230E7E7602530
:10B74000A0F84220A0F84030E1E70000064B0022BC
:10B75000002918BF0B4642F221018364A0F844106F
:10B760001946FFF7A3BB00BF0024F400F8B5044658
:10B77000B0F84070B0F84250BDF81860394413FA80
:10B7800081F72A4416FA82F5013F47EA0147013D55
:10B790002A2145EA0245FFF769FE39462046FFF7B0
:10B7A00004FF20462B21FFF761FE29462046FFF7C4
:10B7B000FCFE2046BDE8F8402C21FFF757BE10B52F
:10B7C00004465021FEF78DFC204610BD13B50446FB
:10B7D000CDE900230B46A0228021FFF737FB044B65
:10B7E000204623600023A4F84C3002B010BD00BFF7
:10B7F00074FD3F022DE9F0470C46036805465B697E
:10B80000984714F8017B97B32646284616F8021B82
:10B81000FFF72CFE94F80190B24609F07F084446E9
:10B82000013CE4B2FF2C05D028461AF8011BFFF7B3
:10B83000F4FDF5E795F93E00012180B201F0E5FD48
:10B8400095F93E00002180B201F0DFFD19F0800F74
:10B8500006EB080408D016F808000134FF2808BFDA
:10B860004FF4FA7000F0A6FD013FFFB2CBE72B6862
:10B870002846BDE8F047DB6A184738B50D4603682F
:10B8800000211B6D044698472DB129462046BDE88E
:10B890003840FFF7AFBF38BD42600022027220225D
:10B8A0000170C260704710B5037A044653B1217825
:10B8B000606801F022F9606801F027F9B0FA80F0C1
:10B8C000400910BD012100F003F80028EFD1F8E78E
:10B8D00038B5044640680D4601F0E0F801202072BA
:10B8E00025B12046BDE83840FFF7DDBF38BD2DE962
:10B8F000F8431F46DDE90896C368154632449A426C
:10B900000446884602D90020BDE8F88301784068E3
:10B9100001F0F3F87EB960682A4603684146DB68A7
:10B9200098478542EFD13946606801F0EAF8B0FAED
:10B9300080F04009E8E7B9F1000FECD060683246CA
:10B9400003684946DB6898478642DCD1E3E72DE986
:10B95000F041154604460E46D2B20178406801F027
:10B96000BAF885420DD100271FFA87F8A84507F1DC
:10B97000010709D2606803685B69984706F8080008
:10B98000F2E70020BDE8F0810120FBE72DE9F84354
:10B9900007468846164699460025B54212D2FA68EF
:10B9A000741B944228BF1446331BAB4294BF4B46D2
:10B9B00000232246384608EB0501FFF7C8FF10B107
:10B9C0002544EAE70120BDE8F883002202617047C0
:10B9D000FF200A448A4211D011F8013B5840082345
:10B9E00010F0800F03F1FF334FEA400018BF80F0E2
:10B9F000310013F0FF03C0B2F2D1EBE770472DE93D
:10BA0000F0479846002382B0CDE9003302AF0646E6
:10BA100001230069D7F8209097F82440FFF767FFCB
:10BA2000054690B3404600F0C5FC54B304EB440215
:10BA3000D2B2D31D03F4FC73ADEB030D0DF1080A74
:10BA4000012351463069FFF7A1FFF0B1013CE4B298
:10BA5000A9F1020809EB4404022251463046FFF7DF
:10BA6000B7FF9AF8023083420FD19AF800209AF873
:10BA700001300AF1030A43EA022328F8023FA045F5
:10BA8000EAD12846BD46BDE8F0870025F9E71FB595
:10BA900020238DF80C3003238DF80D300023022273
:10BAA000CDE9003303A90A23FFF7A9FF05B05DF82C
:10BAB00004FBF0B5044600690F46164685B010B188
:10BAC0001021FEF70EFB1020FEF707FB054618B10C
:10BAD0003A465821FFF7E0FE012128462561FFF78D
:10BAE000F7FE10B9002005B0F0BD36238DF80C30FC
:10BAF00082238DF80D300323019304F10803009392
:10BB000002220A23204603A9FFF779FF0028E9D083
:10BB100020238DF80C302F238DF80D300123019355
:10BB20000DF10E03009302220A23204603A9FFF71A
:10BB300066FF0028D6D0BDF80E3003F0F003202BAE
:10BB4000D0D1002ECFD02046FFF7A1FFCBE71FB505
:10BB500020238DF80830082302228DF8093003AB2A
:10BB6000009301920C2302A90446FFF748FF28B175
:10BB7000BDF80E302380BDF80C30638004B010BDDA
:10BB8000202330B585B08DF80830152314460222E5
:10BB90008DF8093003AB0D46009301920A2302A9E8
:10BBA000FFF72DFF28B1BDF80C302B80BDF80E300B
:10BBB000238005B030BD000009B504480068044B7F
:10BBC00003441B685B6C029309BD000080AD071045
:10BBD0003000000009B504480068044B03441B68AA
:10BBE0005B68029309BD000080AD071000000000F3
:10BBF00009B504480068044B03441B68DB680293E2
:10BC000009BD000080AD07100000000009B5044820
:10BC10000068044B03441B685B69029309BD000084
:10BC200080AD07100000000009B504480068044B0F
:10BC300003441B689B68029309BD000080AD071098
:10BC40001400000009B504480068044B03441B6855
:10BC5000DB68029309BD000080AD071014000000EE
:10BC600009B504480068044B03441B681B69029330
:10BC700009BD000080AD07101400000009B504489C
:10BC80000068044B03441B68DB68029309BD000095
:10BC900080AD07101000000009B504480068044B8F
:10BCA00003441B689B69029309BD000080AD071027
:10BCB0001000000009B504480068044B03441B68E9
:10BCC000DB69029309BD000080AD07101000000081
:10BCD00009B504480068044B03441B681B6A0293BF
:10BCE00009BD000080AD07101000000009B5044830
:10BCF0000068044B03441B685B6A029309BD0000A3
:10BD000080AD07101000000009B504480068044B1E
:10BD100003441B689B6A029309BD000080AD0710B5
:10BD20001000000009B504480068044B03441B6878
:10BD3000DB6A029309BD000080AD0710100000000F
:10BD400009B504480068044B03441B681B6B02934D
:10BD500009BD000080AD07101000000009B50448BF
:10BD60000068044B03441B685B6B029309BD000031
:10BD700080AD07101000000009B504480068044BAE
:10BD800003441B681B6C029309BD000080AD0710C3
:10BD90001000000009B504480068044B03441B6808
:10BDA0001B6D029309BD000080AD0710100000005C
:10BDB00009B504480068044B03441B685B6902939F
:10BDC00009BD000080AD07104C00000009B5044813
:10BDD0000068044B03441B689B68029309BD000084
:10BDE00080AD07105000000009B504480068044BFE
:10BDF00003441B68DB68029309BD000080AD071097
:10BE00005000000009B504480068044B03441B6857
:10BE10001B68029309BD000080AD071018000000E8
:10BE200009B504480068044B03441B685B6902932E
:10BE300009BD000080AD07101800000009B50448D6
:10BE40000068044B03441B68DB69029309BD0000D2
:10BE500080AD07101800000009B504480068044BC5
:10BE600003441B681B6A029309BD000080AD0710E4
:10BE70001800000009B504480068044B03441B681F
:10BE80005B6A029309BD000080AD07101800000036
:10BE900009B504480068044B03441B68DB6B02933C
:10BEA00009BD000080AD07101800000009B5044866
:10BEB0000068044B03441B681B6C029309BD00001F
:10BEC00080AD07101800000009B504480068044B55
:10BED00003441B685B6C029309BD000080AD071032
:10BEE0001800000009B504480068044B03441B68AF
:10BEF000DB68029309BD000080AD0710240000003C
:10BF000009B504480068044B03441B681B6902938D
:10BF100009BD000080AD07102400000009B50448E9
:10BF20000068044B03441B685B69029309BD000071
:10BF300080AD07102400000009B504480068044BD8
:10BF400003441B689B69029309BD000080AD071084
:10BF50002400000009B504480068044B03441B6832
:10BF6000DB69029309BD000080AD071024000000CA
:10BF700009B504480068044B03441B681B6A02931C
:10BF800009BD000080AD07102400000009B5044879
:10BF90000068044B03441B689B6A029309BD0000C0
:10BFA00080AD07102400000009B504480068044B68
:10BFB00003441B681B6C029309BD000080AD071091
:10BFC0002400000009B504480068044B03441B68C2
:10BFD0001B68029309BD000080AD0710340000000B
:10BFE00009B504480068044B03441B685B6802936E
:10BFF00009BD000080AD07103400000009B50448F9
:10C000000068044B03441B681B69029309BD0000D0
:10C0100080AD07103400000009B504480068044BE7
:10C0200003441B685B69029309BD000080AD0710E3
:10C030003400000009B504480068044B03441B6841
:10C040009B69029309BD000080AD07103400000019
:10C0500009B504480068044B03441B68DB6902937C
:10C0600009BD000080AD07103400000009B5044888
:10C070000068044B03441B681B6A029309BD00005F
:10C0800080AD07103400000009B504480068044B77
:10C0900003441B685B6A029309BD000080AD071072
:10C0A0003400000009B504480068044B03441B68D1
:10C0B0005B6B029309BD000080AD071048000000D3
:10C0C00009B504480068044B03441B685B6802938D
:10C0D00009BD000080AD07100800000009B5044844
:10C0E0000068044B03441B685B69029309BD0000B0
:10C0F00080AD07100800000009B504480068044B33
:10C1000003441B68DB6C029309BD000080AD07107F
:10C110000800000009B504480068044B03441B688C
:10C120005B6D029309BD000080AD071008000000A0
:10C1300009B504480068044B03441B68D3F88830F1
:10C14000029309BD80AD07100800000009B504483E
:10C150000068044B03441B68D3F89430029309BD74
:10C1600080AD07100800000009B504480068044BC2
:10C1700003441B685B69029309BD000080AD071092
:10C180002C00000009B504480068044B03441B68F8
:10C190001B6A029309BD000080AD07102C0000004F
:10C1A00009B504480068044B03441B68DB6B029329
:10C1B00009BD000080AD07102C00000009B504483F
:10C1C0000068044B03441B685B68029309BD0000D0
:10C1D00080AD07102800000009B504480068044B32
:10C1E00003441B689B68029309BD000080AD0710E3
:10C1F0002800000009B504480068044B03441B688C
:10C20000DB68029309BD000080AD07102800000024
:10C2100009B504480068044B03441B681B6902937A
:10C2200009BD000080AD07102800000009B50448D2
:10C230000068044B03441B685B69029309BD00005E
:10C2400080AD07102800000009B504480068044BC1
:10C2500003441B689B69029309BD000080AD071071
:10C260002800000009B504480068044B03441B681B
:10C27000DB69029309BD000080AD071028000000B3
:10C2800009B504480068044B03441B681B6A029309
:10C2900009BD000080AD07102800000009B5044862
:10C2A0000068044B03441B681B6B029309BD00002C
:10C2B00080AD07102800000009B504480068044B51
:10C2C00003441B685B6B029309BD000080AD07103F
:10C2D0002800000009B504480068044B03441B68AB
:10C2E0001B6C029309BD000080AD07102800000000
:10C2F00009B504480068044B03441B685B6C029357
:10C3000009BD000080AD07102800000009B50448F1
:10C310000068044B03441B681B68029309BD0000BE
:10C3200080AD07100400000009B504480068044B04
:10C3300003441B685B68029309BD000080AD0710D1
:10C340000400000009B504480068044B03441B685E
:10C35000DB6A029309BD000080AD071004000000F5
:10C3600009B504480068044B03441B681B6B029327
:10C3700009BD000080AD07100400000009B50448A5
:10C380000068044B03441B681B6C029309BD00004A
:10C3900080AD07100400000009B504480068044B94
:10C3A00003441B685B6C029309BD000080AD07105D
:10C3B000040000000021FFF791BE10B58368044619
:10C3C0000BB901F03DF9C3689847A3681BB103227C
:10C3D0002146204698472046BDE810401021FDF731
:10C3E00080BE10B58368044613B103220146984706
:10C3F000204610BD10B543680446013B436063B955
:10C4000003689B689847A368013BA3602BB9236826
:10C410002046BDE81040DB68184710BD10B5044643
:10C42000006808B1FFF7E6FF204610BD13B56C4663
:10C430000B460246D0E9000184E8030093E80300BC
:10C4400082E8030094E8030083E8030002B010BD13
:10C45000002302480360FFF7AFBB00BF8CAE07109C
:10C4600070470020704710B504461021FDF739FED3
:10C47000204610BD08B5FFF7F6FF08BD002230B515
:10C480004FF69C74026084808D888C800C68858057
:10C4900004600A6030BD10B504460068FFF744FF31
:10C4A000204610BD38B5C46814B32378DBB2022B24
:10C4B00003D104F10C00FFF7EEFF231D1D6835B119
:10C4C0002846FFF78EFF10212846FDF70AFE04F1EB
:10C4D00008031D6835B12846FFF783FF1021284661
:10C4E000FDF7FFFD2046BDE838401421FDF7F9BDFA
:10C4F00038BD0B6803604B68436013B15A68013262
:10C500005A60704737B5044668460D46FFF7F1FF9D
:10C51000009B019A23600023626001A801930093AD
:10C52000FFF77CFF35B1281DFFF778FF082128466B
:10C53000FDF7D7FD204603B030BD826810B50AB9BB
:10C5400001F07EF8C368BDE81040184708B50068E0
:10C5500000F11001FFF7F1FF08BD826810B50AB9BC
:10C5600001F06EF8C368BDE81040184708B50068D0
:10C5700000F11001FFF7F1FF08BD000038B50023FE
:10C580000446036010200D46FDF7A7FD28B10123E6
:10C59000C0E90133024BC56003602060204638BD0E
:10C5A000D4FD3F0238B5002383608B6804460D46F6
:10C5B0002BB102229847EB68E360AB68A36020468A
:10C5C00038BD0000F0B589B004686846FFF756FF33
:10C5D0004FF00203D4E84F2F002A03D1C4E8413FB3
:10C5E0000029F7D121D104F10C0569462846FFF74F
:10C5F00045FF0122631CC3E88F2F002004F10803CC
:10C60000D3E8EF6FC3E8E20F002AF9D16EB1FFF76C
:10C6100073FD78B129463046FFF78FFF3046FFF7AC
:10C62000E0FE10213046FDF75CFD6846FFF733FF62
:10C6300009B0F0BD314602A8FFF7B4FFE068B4F9D5
:10C64000105008B101F048F806901020ADF81C50C9
:10C65000FDF743FD0546E8B1002787601820FDF788
:10C660003CFD044688B10146876002A8FFF7DEFE64
:10C67000049BA268A360059B0492E26806A9E3609C
:10C6800004F110000592FFF7F9FE084B2C60EB60F7
:10C69000074BAB6006A8FFF7FEFE02A8FFF7A1FE5E
:10C6A000002229460348FFF735FDB7E73DCC3F029E
:10C6B000B9CE3F02ABCA3F022DE9F04F8BB0054621
:10C6C0000F46904699469DF850A0FFF74DFD07AEE6
:10C6D000834638BB4FF62E73059005A93046ADF85A
:10C6E0001830FFF7CBFE1420FDF7F7FC044648B1E5
:10C6F000022303700123C0E901BB437031460C30B3
:10C70000FFF7BCFE2846214640F8044BFFF736FFF2
:10C710003046FFF7C0FE05A8FFF7BDFE28460BB068
:10C72000BDE8F08F0C2300241420CDE908440793C2
:10C73000FDF7D3FC014618B1C0E901440470447010
:10C7400004A80391FFF71AFF1E4B08200893FDF77A
:10C75000C4FC044610B103A9FFF7CBFE4A4641468C
:10C76000384600965FFA8AF30994FFF70BFDB8B9D3
:10C77000039B01331B78DBB293B905934FF69C738F
:10C7800005A903A8ADF81830FFF71CFF05A8FFF7AF
:10C7900082FE05A80999FFF7B5FE06A8FFF73EFE41
:10C7A00003A905A8FFF7A5FE059B069A2B600023A9
:10C7B0006A6006A806930593FFF730FE04A8FFF70A
:10C7C0002DFEABE735CF3F02012AF8B5054603D170
:10C7D0000B6803600020F8BD022A10D0032AF9D1AB
:10C7E0000468002CF6D004F11000FFF754FE204638
:10C7F000FFF7F7FD18212046FDF773FCEAE7182044
:10C800000E68FDF76AFC044650B13146FFF7CAFED8
:10C810003069B6F9147008B100F05EFF2061A7829C
:10C820002C60D7E738B5002383608B6804460D463B
:10C830002BB102229847EB68E360AB68A360204607
:10C8400038BD0000F0B5044689B00D4601A8114678
:10C85000FFF758FEA4B124B21DB1284600F03CFFFA
:10C86000054601A803A90395ADF81040FFF7AAFEFD
:10C8700003A8FFF710FE02A8FFF7D0FD09B0F0BD36
:10C880000123019DD5E84F2F002A03D1C5E8413F80
:10C890000029F7D1EFD12B730122EB18C3E88F2FBA
:10C8A0002B1DD3E8EF6FC3E8E24F002AF9D1002E29
:10C8B000E1D02046FFF720FC074660B1304605F185
:10C8C0000C01FFF74AFE3046FFF78BFD1021304682
:10C8D000FDF707FCCFE7314603A8FFF7A3FF2B7B4B
:10C8E00010208DF81C30FDF7F8FB0546D0B18760AD
:10C8F0001420FDF7F2FB044678B10146876003A8D7
:10C90000FFF794FD059BA268A360069B0592E26871
:10C91000E3609DF81C3006922374074B2C60EB609B
:10C92000064BAB6003A8FFF75CFD002229460448D4
:10C93000FFF7F0FBC7E700BF5DCC3F0235D03F02F9
:10C94000ABCA3F02012A70B5044603D10B680360ED
:10C95000002070BD022A0CD0032AF9D10468002CF3
:10C96000F6D02046FFF73DFD14212046FDF7B9FB28
:10C97000EEE714200E68FDF7B0FB054620B1314606
:10C98000FFF750FF337C2B742560E1E700224068FD
:10C990001146FFF775BC002240681146FFF78CBCBA
:10C9A00000224068FFF77ABC0022406881F0010154
:10C9B000FFF758BC002340681A461946FFF744BCED
:10C9C000002340681A461946FFF730BC0022406831
:10C9D0001146FFF71DBC002240681146FFF7FCBB63
:10C9E000002202214068FFF705BC002340681A4678
:10C9F000FFF7E4BB0322024B5A60024A1A607047F9
:10CA000090AE0710F0FD3F027047F8B50646154698
:10CA10000C468F18BC4206D0336830469B6814F829
:10CA2000011B9847F6E72846F8BD0022007CFFF777
:10CA30004FB90021007CFFF759B90021007CFFF7B6
:10CA400063B90021007CFFF76DB90021007CFFF77E
:10CA500077B910B504461421FDF743FB204610BDFD
:10CA600038B5044615464FF47A730022C4E9012311
:10CA7000094B0846217423602946FFF77DF9BF3032
:10CA800008D16B69DB0705D56868FFF74DFCE868DE
:10CA9000FFF74AFC204638BD2CFE3F020023007CF5
:10CAA0001A461946FFF7EAB87FB500221423CDE9EC
:10CAB0000122ADF804300B78007C8DF808304B680B
:10CAC0000393CB6804930B7A01A90593FFF762F9EE
:10CAD00007B05DF804FB1FB5003B8DF800104FF068
:10CAE000640118BF01230391694601928DF8083053
:10CAF000FFF7DAFF05B05DF804FB0022007CFFF7CA
:10CB0000CBB80022007CFFF7D5B80121FFF7F9BFB1
:10CB1000704710B504461821FDF7E3FA204610BD12
:10CB2000F0B5037D0E46062B4FF000048DB000F1EA
:10CB3000040712D000F1080515F8011D0A2230463D
:10CB400000F05DF9AF42044419D0002CF4D02E213E
:10CB5000304600F03BF90444EEE72F236A4639469D
:10CB60000A208DF80040FFF723F96846FDF790FA98
:10CB70003368024669463046DB68984704462046DB
:10CB80000DB0F0BD10B50446044B1122002140F851
:10CB9000043B00F06BFD204610BD00BF54FE3F0279
:10CBA0000346074A10B543F8042B01F1100251F86F
:10CBB000044B914243F8044BF9D10A781A7010BD26
:10CBC00054FE3F0210B59DF8084044EA032343EAAF
:10CBD0000242042342EA01614160037510BD000076
:10CBE00007B5064B0360CB7800938B784A780978B9
:10CBF000FFF7E8FF03B05DF804FB00BF54FE3F02FF
:10CC0000014B024A1A60704798AE071060FE3F025F
:10CC1000002340681A46FFF7D1BA0022022140687B
:10CC2000FFF7E8BA002240681146FFF7D5BA0022A4
:10CC300040681146FFF7ECBA002340681A461946CF
:10CC4000FFF7F4BA002340681A461946FFF7FCBA0A
:10CC500000214068FFF73EBB00214068FFF748BB5A
:10CC60000022406881F00101FFF7FCBA0022406811
:10CC7000FFF714BB002240681146FFF71DBB0022DE
:10CC800040681146FFF7FCBA2DE9F04395B0144611
:10CC90000D460746FFF776FF00211C220DA80091E4
:10CCA00000F0E4FC402320460C9300216B460CAAC4
:10CCB000FFF79AF8044600284BD102460121686824
:10CCC000FFF7A6FA0221804622466868FFF7A0FA1D
:10CCD00021468146009E002E3BD0002939D1736841
:10CCE000022B03D00A2B11D0F669F4E7B8F1000F3C
:10CCF000FAD0716906A804313C1D07ADFFF770FF3B
:10CD00000FCD0FC42B6841462370EDE7B9F1000F3A
:10CD1000EAD0102201A8746900F0A8FC062301AD36
:10CD20008DF8143004F1080318342A46186859683D
:10CD3000083303C2A3421546F7D101A906A83C1D3A
:10CD400007ADFFF72DFF0FCD0FC42B6849462370A9
:10CD5000CAE70098FFF73AF8384615B0BDE8F08307
:10CD6000024B034A1A6000225A6070479CAE0710BB
:10CD70006CFE3F02F8B506460D4600248F18BD42F2
:10CD80000CD0336830469B6815F8011B9847031E8A
:10CD900001DB1C44F3E7002C08BF1C462046F8BD0D
:10CDA00013B50446084659B10191FDF771F90246E1
:10CDB000204623680199DB6802B0BDE8104018479F
:10CDC00002B010BD08B5FFF7EBFF08BD03689B6814
:10CDD000184738B50D210546FFF7F8FF0A2104462C
:10CDE0002846FFF7F3FF204438BD38B50546FFF766
:10CDF000D7FF04462846FFF7ECFF204438BD002348
:10CE0000012A98BF0A2230B58BB08DF8243009ACC6
:10CE10000D46B1FBF2F101FB125303F0FF03092BA6
:10CE200094BF30333733DBB2AA4204F8013DEFD967
:10CE30002146FFF7B5FF0BB030BD00000022014BCB
:10CE40009A607047A4AE07100021FFF73DB800219B
:10CE5000FFF72CB810B5044608462170FEF7EEFF28
:10CE600000232046636010BD13B504460078FFF729
:10CE7000EEFF58B920784FF6FF710190FEF7C2FF20
:10CE8000019802B0BDE81040FFF7DEBF02B010BD50
:10CE90000078FFF7D9BF000030B5002440081860C3
:10CEA0001868E5B2884206D90134082C02D040083F
:10CEB0001860F5E70725024B5B5D137030BD00BFBE
:10CEC000A0FE3F022DE9F04306468FB000780C46E5
:10CED000FFF7BDFF00281BDB1422002109A83578CD
:10CEE00000F0C4FB0B230022284609A9ADF824302A
:10CEF000FEF7C0FF9DF82D3013B19DF82C5055B1B1
:10CF000000270125B946B84623795DB1C3B1002099
:10CF10000FB0BDE8F083DDF830809DF834909DF8C7
:10CF20003570F1E7002B35D1A368434508D18DF862
:10CF300020908DF82170BDF82020A3899A42E6D078
:10CF40000023A1688DF80F300A9804AB0DF10F0291
:10CF5000FFF7A2FF217985B989B9A36843450ED3AC
:10CF60008DF820908DF82170BDF82020A3899A4279
:10CF700005D1049B434502D1C9E70029F9D100231B
:10CF80000193637B9DF80F200093237B3078FEF79D
:10CF90007FFFBCE72B462A460121CDE90055F5E786
:10CFA00008B50078FEF73CFFC0B208BD02220020A1
:10CFB000044B1A60044B054AC3E900009A60FFF76E
:10CFC0007FB800BFC0AE0710B4AE07100000FFFF6F
:10CFD000024B1A68024B1A60704700BF84AD0710FD
:10CFE000C4AE071070474174704708B5007CFEF767
:10CFF000CDFF20EAE07008BD08B5007CFEF780FF99
:10D0000020EAE07008BD08B5007CFEF795FF40EA15
:10D01000E07008BD08B5007CFEF780FF40EAE070D4
:10D0200008BD007CFEF796BF37B5457C04462DB1A0
:10D03000207C03B0BDE83040FEF754BF007C019176
:10D04000FEF7A4FF00280199F2DC284603B030BDAA
:10D0500010B504461421FDF744F8204610BD000029
:10D0600010B54FF47A730446084611460022C4E90D
:10D070000123044B2074236001236374FEF794FFA3
:10D08000204610BDCCFE3F02007CFEF771BF41740C
:10D0900070477047704708B50021007CFEF7CAFF53
:10D0A00040EAE07008BD08B50121007CFEF7C2FF30
:10D0B00040EAE07008BD08B5007CFEF7ADFF20EA4D
:10D0C000E07008BD08B5007CFEF798FF20EAE0702C
:10D0D00008BD13B50446007C0191FEF79DFF0028B2
:10D0E000019901DC607C20B1207CFEF7B1FF20EAD1
:10D0F000E07002B010BD007CFEF7B8BF10B504466A
:10D100001421FCF7EEFF204610BD000010B54FF4CF
:10D110007A73044608460021C4E90113044B2074C5
:10D120002360012311466374FEF74CFF204610BDB7
:10D13000FCFE3F020022007CFEF752BF007CFEF79F
:10D14000A3BFFFF7FBBF10B504461422002100F077
:10D150008DFA204610BD000010B588B003A8FFF777
:10D16000F2FF0C4CD4E88F1F11F001010FD12046C3
:10D170000191FCF7C5FF019948B103AA0648FFF7E2
:10D18000C5FF2046FCF7C1FF044800F05CFA0248E6
:10D1900008B010BDC8AE0710CCAE071083D73F0251
:10D1A000002240681146FFF733B80022406811465C
:10D1B000FFF766B8002240681146FFF77DB80022ED
:10D1C0004068FFF76BB80022406881F00101FFF76B
:10D1D00049B8002340681A461946FFF735B80023BE
:10D1E00040681A461946FFF721B8002240681146E8
:10D1F000FEF7F2BF002202214068FEF7FBBF0023CA
:10D2000040681A46FEF7DABF0422024B5A60024A0F
:10D210001A607047E0AE07102CFF3F02014B186008
:10D22000704700BF88AD071008B50F4B43B1FFF73B
:10D2300093FF03681B699847002801DD00E000BFE9
:10D240000A4B43B100F06AF903681B69984700284C
:10D2500001DD00E000BF064B0BB100F0A5F9054B66
:10D260000BB100F0D7F908BD00000000000000007D
:10D27000000000000000000008B5FFF7D5FFFEF732
:10D28000C5FC014B186008BDF0AE07100548064A02
:10D2900008B5121A054900F0DCF9054B054A1A6079
:10D2A00008BD00BF00B4071004B4071078F95F0888
:10D2B00000B407101E1C279A002307B51A466FF00A
:10D2C00077010093FEF742FF03B05DF804FB000016
:10D2D00007B543880A2B08D0502B0BD1094B1B688C
:10D2E0004BB103B05DF804EB1847FFF7E5FF03B05F
:10D2F0005DF804FB00231A466FF077010093FEF7F8
:10D3000025FFF4E7ECAE0710002110B51148FFF738
:10D3100043F8114B1A68114B9A420CBF01220022AC
:10D320000F4B1A7001D0FFF7B1FFFEF753FC044614
:10D3300000F0A4F90B4B13B1204600E000BF002120
:10D340000848FEF72DFFBDE8104000210648FEF713
:10D35000EFBE00BF0DD93F0200B407101E1C279A74
:10D36000E8AE071000000000C1D93F021B2837B506
:10D37000044602D9002003B030BDA0F10F03022BF8
:10D380000BD9012821D800F075F80021007CFEF7A8
:10D39000E5FC80F00100C0B2EDE7114DD5E88F1F2C
:10D3A00011F001010BD128460191FCF7A9FE01996A
:10D3B00028B10C48FFF74EFD2846FCF7A6FE094BA6
:10D3C0001878FEF749FD0028D4D1083C012C05D877
:10D3D00000F0A4F8007CFEF7CBFDDAE70120CAE7F5
:10D3E00080AE071084AE07101B2838B504460D46E2
:10D3F0000AD8FF2908D0FFF7B9FF28B129462046EF
:10D40000BDE83840FEF710BC38BD38B504460D46BF
:10D41000FEF718FCFF2810D0062804D84D2323FA65
:10D4200000F0C30709D42046FFF7A0FF28B1294622
:10D430002046BDE83840FEF713BC38BD70470000F9
:10D4400038B50A4B04460360012309494361202093
:10D4500000F0F4F82025606005492846A56000F03A
:10D46000EDF8C4E90305204638BD00BF18000100EF
:10D4700060FF3F0230B50E4D87B0D5E88F1F11F029
:10D48000010411D12846FCF73BFE68B16846FFF75E
:10D49000D7FF6A4621460748FFF7E2FA2846FCF71D
:10D4A00034FE054800F0CFF8024807B030BD00BF99
:10D4B000F4AE0710F8AE07102DDB3F0270470000F6
:10D4C00038B5142504462A46002100F0CFF82580FF
:10D4D0004025074928462581258200F0AFF80449F8
:10D4E0006060284600F0AAF8E060204638BD00BF22
:10D4F00060FF3F027047704710B50446FFF7E0FF3A
:10D50000204610BD10B50446FFF7DAFF204610BDD7
:10D5100010B50446FFF7D4FF204610BD30B50E4DC0
:10D5200087B0D5E88F1F11F0010411D12846FCF710
:10D53000E7FD68B101A8FFF7DFFF214601AA074810
:10D54000FFF78EFD2846FCF7E0FD054800F07BF86C
:10D55000024807B030BD00BF0CAF071018AF07106E
:10D56000ADDB3F0210B50D4C86B0D4E88F3FDB0732
:10D5700011D42046FCF7C4FD68B101A8FFF7C2FF33
:10D58000012101AA0648FFF76BFD2046FCF7BDFD0F
:10D59000044800F058F8024806B010BD10AF07105C
:10D5A0002CAF0710E7DB3F0210B5FFF7DBFF074B9F
:10D5B000044653B1FFF768FD38B1236820461B6964
:10D5C0009847002801DD00E000BF10BD000000000A
:10D5D00010B50D4C86B0D4E88F3FDB0711D4204640
:10D5E000FCF78EFD68B101A8FFF792FF022101AAA6
:10D5F0000648FFF735FD2046FCF787FD044800F09C
:10D6000022F8024806B010BD14AF071040AF071053
:10D61000E5DB3F0210B5FFF7DBFF074B044653B1D4
:10D62000FFF732FD38B1236820461B699847002870
:10D6300001DD00E000BF10BD00000000FCF74FBDA1
:10D6400008B5FEF77FFE002301461A46184600F093
:10D6500061B80A44431E914200D1704710B511F8D9
:10D66000014B914203F8014FF9D110BD024403462A
:10D67000934200D1704703F8011BF9E738B5104B0E
:10D6800004461D68AB6BB3B91820FEF73FFE024697
:10D69000A86320B90B4B42210B48FEF76FFE0B49E4
:10D6A0000B4BC0E900130B4B002183600B238381DC
:10D6B0000120C2E90401AB6B00221C615A6138BD34
:10D6C00088AD071061FF3F0278FF3F020E33CDABFC
:10D6D00034126DE6ECDE0500024B0146186800F0DE
:10D6E00003B800BF88AD071037B5044608460D469D
:10D6F000FCF7CEFC421C204611460192FEF730FE9C
:10D70000044618B1019A2946FFF7A3FF204603B04B
:10D7100030BD00002DE9F843DFF8BC8006461F4607
:10D720000D46D8F80000914600F058F8264B1C68CA
:10D7300034B9264C1C60264B13B11B68C4F88830E2
:10D7400063681F2B07DDD8F8000000F049F84FF0A0
:10D75000FF30BDE8F8835EB3D4F8880088B91D4B6C
:10D7600023B9D8F8000000F03AF8F0E74FF48470DD
:10D77000FEF7CCFD0028F4D00023C0E94033C4F804
:10D78000880063680122022E40F8239002FA03F217
:10D7900000EB8301D0F8003143EA0203C0F8003106
:10D7A000C1F8807002BFD0F804311343C0F80431CF
:10D7B0006368D8F800005A1C0233626044F82350B2
:10D7C00000F00EF80020C4E7E0AF071054AF0710D8
:10D7D00000000000FDC93F02ECAD07107047704724
:10D7E0007047000091A73F02B9A73F02BDA73F02C3
:10D7F0000000000043616C6C206F6E2070757265D4
:10D80000207669727475616C00434F320054564F34
:10D8100043007070625C74004832205C7400457490
:10D8200068616E6F6C004D6561737572656D656ED4
:10D8300074206661696C656400475F54564F4320ED
:10D8400000207070620900475F434F322000207053
:10D85000706D004661696C656420746F2067657443
:10D8600020626173656C696E652072656164696EC2
:10D870006773000074E23F027CDF3F02207E1D00E0
:10D88000F6ED3F02FEEA3F02207E1D000000000090
:10D8900007000100000004110803F00009000A0657
:10D8A0000B01EF0011000D100D00F1002B000D1405
:10D8B0000D00EF004C0013111501F0007500101160
:10D8C0001101F000970004060601EF009A00061609
:10D8D0000801EF00AB0006160801EF00BC000708C6
:10D8E0000901EF00C3000B0B0E02F600D300040782
:10D8F0000601FE00D70006030801F900DA00040360
:10D900000601FE00DC0006110700F000E9000C1122
:10D910000D01F000030107110E03F00012010C11BC
:10D920000D01F0002C010C110D01F00046010B114E
:10D930000D01F0005E010C110D01F00078010C11D9
:10D940000D01F00092010B110D01F000AA010C1164
:10D950000D01F000C4010C110D01F000DE01040CFA
:10D960000601F500E40104100601F500EC010C0CC1
:10D970000E01F500FE010C090E01F7000C020C0C63
:10D980000E01F5001E020C120F02EF0039021515F0
:10D990001701EF00710210121100EF0095020E1234
:10D9A0001102EF00B50210121101EF00D9020F129F
:10D9B0001102EF00FB020D121002EF0019030C120E
:10D9C0000F02EF00340310121201EF0058030E1281
:10D9D0001202EF00780304120702EF0081030B121A
:10D9E0000E01EF009A0310121102EF00BE030B129A
:10D9F0000F02EF00D70311121502EF00FE030F1202
:10DA00001202EF00200411121301EF0047040E125E
:10DA10001002EF00670411131301EF0090041012BD
:10DA20001102EF00B4040F121001EF00D6040C1223
:10DA30000F02EF00F1040E121202EF0011050F1297
:10DA40001000EF00330517121700EF0067050F12E3
:10DA50001001EF00890510120F00EF00AD050D1247
:10DA60000F01EF00CB0506170802EF00DD050711D7
:10DA70000700F000EC0506170800EF00FE050C0B90
:10DA80000E01F0000F060F020DFF04001306040341
:10DA90000600EF0015060D0D0E01F4002B060D1209
:10DAA0000F02EF0049060C0D0D01F4005D060D128A
:10DAB0000F01EF007B060D0D0E01F4009106071219
:10DAC0000801EF00A1060D120F01F400BF060C12B1
:10DAD0000E02EF00DA0604120702EF00E306061753
:10DAE0000700EF00F5060C120E02EF0010070412FB
:10DAF0000602EF001907130D1502F40038070C0D8C
:10DB00000F02F4004C070D0D0F01F40062070D1217
:10DB10000F02F40080070D120F01F4009E07080D9C
:10DB20000902F400AB070C0D0D01F400BF07060F4E
:10DB30000801F200CB070C0D0F02F400DF070D0DFA
:10DB40000D00F400F507120D1300F40013080D0D7D
:10DB50000D00F40029080D120D00F40047080A0D0D
:10DB60000C01F400580806170901EF006A080216B4
:10DB70000702EF00700806170903EF0082080C0582
:10DB80000C00F900FFFFFFFF766660FFF0F3FCFF7B
:10DB90003FCF6198600E70738318FFF7FFBFFC736F
:10DBA000831818C7FFBFFDFFE31839C1CE0E7002FE
:10DBB000007E0FF87FE7AFB93DC80F403F00FF0080
:10DBC000FC05FF27F93FEBEFFE3FE07C00800400FF
:10DBD0003C060FC181FC30738C0C3181CE601FCCB0
:10DBE00003F3003C678019F8027F80CE701186062F
:10DBF00039C187F8307E0C078007801FC03FE03CAA
:10DC0000E03CE03EE00FC007003F8C7FCCF1FCF031
:10DC1000F8F078F8F87FFC3FDE1F8EFFFF660C738C
:10DC20008E71C738E38E38E38E1C71C38E1870C3B3
:10DC3000871C38E3871C71C71C71CE38E71C6380D2
:10DC400010235FF3871B140E01C038070FFFFFFF7F
:10DC5000F8700E01C03800FFF336C0FFFFC0FFF0C0
:10DC60000C308618610C30C218618430C01F83FCF0
:10DC70007FE79EF0FF0FF0FF0FF0FF0FF0FF0FF0B8
:10DC8000F79E7FE3FC0F00061C7FFFE3C78F1E3C5F
:10DC900078F1E3C78F1E1F83FC7FEF9FF0FF0F001B
:10DCA000F00F01E03C0F81E03C03807FF7FF7FF045
:10DCB0001F07FCFFEF1EF1E01E03C07807C01E0027
:10DCC000F00FF0FF1F7FE7FC1F8003C0F81F07E184
:10DCD000BC278CF31E63D87BFFFFFFFE0780F01E7E
:10DCE00003C03FE7FE7FE7006006F87FCFFEF1F05C
:10DCF0000F00F00F00FE1EFFE7FC3F000F83FC7FCC
:10DD0000E79FF00F78FFCFFEF9FF0FF0FF0FF0F75E
:10DD10009F7FE3FC0F80FFFFFFFF80E01C0701E017
:10DD2000380F01C0780F01E0380F01E03C000F030D
:10DD3000FC7FC79E70E70E39C1F83FC79EF0FF0F0A
:10DD4000F0FF9F7FE3FC1F801F03FC7FEF9EF0EF3F
:10DD50000FF0FF0FF9F7FF3FF1EF00EF1E7FE7FC39
:10DD60001F00FFF000000FFFFFF000000FFF116C1D
:10DD700000100703F1FC7E0F80E00FC03F807F00A2
:10DD8000F003FFFFFFFFF000000000FFFFFFFFF0C8
:10DD9000000E00FC07F00FE01F00F07F1F8FE0F087
:10DDA00008001F07FC7FEF9FF0FF0F00F00F01E05E
:10DDB0003C0780F00E00E00000F00F00F000FE00D5
:10DDC0001FFC03C0F03801C38007183D9987EC6C35
:10DDD00071C3C3061E1830F181878C187C60C36341
:10DDE0008E3B8FDF8C3CF0700001C0000780801FED
:10DDF000FE001FC00003E003E003E007F007F007A8
:10DE0000700F780E780E381E3C1C3C3FFC3FFE3FE6
:10DE1000FE780E780F700FF007FFC3FFCFFF3C3E78
:10DE2000F07BC1EF0FBFFCFFE3FFCF07BC0FF03F5C
:10DE3000C0FF07FFFEFFFBFF8007E01FF83FFC7CF1
:10DE40003E781FF80FF000F000F000F000F000F056
:10DE500000F80F781F7C3E3FFE1FFC07F0FFE1FF3C
:10DE6000E3FFE783EF03DE07FC07F80FF01FE03F57
:10DE7000C07F80FF03FE07BC1F7FFCFFF1FF80FF18
:10DE8000F7FFBFFDE00F007803C01FFCFFE7FF3C7A
:10DE900001E00F007803C01FFFFFFFFFC0FFFFFF7F
:10DEA000FFFF00F00F00F00FFEFFEFFEF00F00F09D
:10DEB0000F00F00F00F00F0003F00FFC3FFE3E1FBD
:10DEC00078077800F000F000F07FF07FF07FF00737
:10DED00078077C0F3E1F3FFB0FFB03E3F03FC0FFC3
:10DEE00003FC0FF03FC0FF03FFFFFFFFFFFF03FC3A
:10DEF0000FF03FC0FF03FC0FF03FC0F0FFFFFFFF3C
:10DF0000FFFFFFFFFF01E03C0780F01E03C0780F1A
:10DF100001E03C07F8FF1FE3FC7BFE7FC3E0F03E1F
:10DF2000F03CF078F0F0F1E0F3C0F780FF00FF8004
:10DF3000FF80FBC0F1E0F0F0F0F0F078F03CF03E54
:10DF4000F01EF01E03C0780F01E03C0780F01E03B6
:10DF5000C0780F01E03C07FFFFFFFCF81FFE0FFF3A
:10DF60000FFF87FFC3FFE1FFF9FFFCEFFE77FB3BED
:10DF7000FDDDFEFCFF7E7F9F3FCF9FE78FF3C7F85D
:10DF8000E3C0F01FF03FF07FE0FFE1FFC3FDC7FB00
:10DF90008FF39FE73FC77F8FFF0FFE1FFC1FF81F08
:10DFA000F03FE03C03E00FFC0FFF87C7C780F3C0E2
:10DFB0007BC01FE00FF007F803FC01FE00F780F3C1
:10DFC000C078F0F87FFC1FFC03F800FFE3FFEFFFD1
:10DFD000BC1FF03FC0FF03FC1FFFFBFFCFFE3C0058
:10DFE000F003C00F003C00F003C00003E00FFC0F83
:10DFF000FF87C7C780F3C07BC01FE00FF007F8039F
:10E00000FC01FE04F787F3C3F8F0F87FFC1FFF83E1
:10E01000F1800000FFF8FFFCFFFCF03EF01EF01E58
:10E02000F01EF03CFFF8FFF0FFF8F03CF03CF03C55
:10E03000F03CF03CF03CF01F0FC07FE1FFE7C3EF86
:10E0400003DE003C007F007FF03FF80FF801F00195
:10E05000FE03DE0FBFFE3FF81FC0FFFFFFFFF0F023
:10E060000F00F00F00F00F00F00F00F00F00F00FA6
:10E0700000F00F00F0F03FC0FF03FC0FF03FC0FFC7
:10E0800003FC0FF03FC0FF03FC0FF03FC0F7879F7A
:10E09000FE3FF03F00700EF03DE079C0E381C7879E
:10E0A000870E0E1C1E781CE039C073807E00FC01B8
:10E0B000F801E003C0078070381CE0F079E1F0F36C
:10E0C000C3E1E387C3870F870E3B9E1E77381CEEA4
:10E0D0007039CCE07399C06E3F00FC7E01F8FC0300
:10E0E000F0F803E1E00783C00F0780F03CF0F9E1AE
:10E0F000E1E783CF03FC03F007E007800F003F0058
:10E10000FF01FE079E0F1E3C3CF83DE078F01E78B4
:10E110001E783C3C3C3C781E780E700FF007E00700
:10E12000E003C003C003C003C003C003C003C003B7
:10E13000C0FFFFFFFFFE01F00F00F00F00F80780A7
:10E140007807807C03C03C03C01FFFFFFFFFC0FFB8
:10E15000FFFCF3CF3CF3CF3CF3CF3CF3CF3CFFFFCE
:10E16000C0C1810306040C1810306040C181030651
:10E17000FFFFCF3CF3CF3CF3CF3CF3CF3CF3CFFFDB
:10E18000FFC00F00F00F01F81B839C39C30C70E730
:10E190000EE070FFFFFFFCE6301F83FF1FFDE1E094
:10E1A0000F03F9FFDF1EF0F78FBFFCFFE3CF80F016
:10E1B00007803C01E00F007BC3FF9FFEF8F783FC64
:10E1C0001FE0FF07F83FE3DFFEFFE7BE000F83FE1F
:10E1D0007FF78FF07F00F00F00F0778F7FF3FE0F57
:10E1E00080007803C01E00F0078FBCFFEFFF78FFB0
:10E1F00083FC1FE0FF07F83DE3EFFF3FF8FBC01F84
:10E2000081FE1FF9F1CF077FFBFFDE00F003C39F04
:10E21000FC7FC0F8003EFDFBC79FBF3C78F1E3C721
:10E220008F1E3C78F01E79FBDFFEF1FF07F83FC13F
:10E23000FE0FF07FC7DFFE7FF1F7803C01FF1E7FFE
:10E24000F0FE00F00F00F00F00F00F7CFFEFFFF981
:10E25000FF0FF0FF0FF0FF0FF0FF0FF0FF0FFFF0C9
:10E260000FFFFFFFFFFFFF3CF3C000F3CF3CF3CFF6
:10E270003CF3CF3CF3CFFFFF80F00F00F00F00F036
:10E280000F0FF1EF3CF78FF0FF0FF8FF8F3CF1CF4E
:10E290001EF0EF0FFFFFFFFFFFFFFFFFFFF78F9F56
:10E2A000FBFBFFFFFCF8FF1E1FE3C3FC787F8F0F13
:10E2B000F1E1FE3C3FC787F8F0FF1E1EF7CFFEFFDF
:10E2C000FF9FF0FF0FF0FF0FF0FF0FF0FF0FF0F0D8
:10E2D0000F81FF1FFCF1EF07F83FC1FE0FF07BC776
:10E2E0009FFC7FC0F800F7C7FF3FFDF1EF07F83F45
:10E2F000C1FE0FF07FC7BFFDFFCF787803C01E00BF
:10E30000F00780000F79FFDFFEF1FF07F83FC1FE45
:10E310000FF07BC7DFFE7FF1F7803C01E00F007854
:10E3200003C0F3F7FFF8F0F0F0F0F0F0F0F0F01FBA
:10E3300087FCFFEF0FF80FF07FE0FF01FF0FFFE713
:10E34000FE1F8079E7BFFDE79E79E79E7DF3C0F071
:10E35000FF0FF0FF0FF0FF0FF0FF0FF0FF1FFFF7B1
:10E36000FF3EF0F07B839E1CF1E38E1C707783B838
:10E370001DC07E03E01F007000F0E1DC78771F3DD8
:10E38000E7CF79B38E6CE3BB38EEFC1F3F07C7C104
:10E39000F1F07C780E1E0078F3C78F783B81FC0784
:10E3A000C01E01F01FC0EF0F78F1E78700F07B83FC
:10E3B0009E1C71E38E1E707383B81FC07E03E00F36
:10E3C000007003803C07C03E01E000FFFFFFFC0F30
:10E3D0000783C1E0F0783C0FFFFFFFC01CF3CE388D
:10E3E000E38E38E3BCF0E38E38E38E3CF1C0FFFFF0
:10E3F000FFFFFFF0E38F1C71C71C71C70F3DC71CE7
:10E4000071C71CF3CE00780FE0CF307F01E0000031
:10E41000000007000100000006120703EF000E00D5
:10E4200006060904F00013000F120D01EF0035007D
:10E430000D150D02EF00580013111503F0008100B7
:10E440000D111002F0009D0002060504F0009F006F
:10E4500008170803EF00B60008170800F000CD0009
:10E4600008080904EF00D5000C0B0E02F600E600C8
:10E4700004060701FF00E90006020802F900EB00AC
:10E4800003020702FF00EC000A120700EF0003017D
:10E490000C110D02F0001D0107110D05F0002C01FB
:10E4A0000E110D01F0004A010C110D02F000640183
:10E4B0000C110D02F0007E010D110D02F0009A0109
:10E4C0000C110D02F000B4010D110D03F000D0018C
:10E4D0000C110D02F000EA010C110D02F000040213
:10E4E000050C0703F5000C0206100702F5001802E0
:10E4F0000D0C0E02F5002C020D060E02F80036027D
:10E500000D0C0E01F6004A020B120D04EF0063021F
:10E5100017151802EF00A00210121000EF00C4023D
:10E520000F121002EF00E60210121102EF000A03B0
:10E5300010121102EF002E0310121002EF0052030E
:10E540000F120E02EF00740310121303EF00980372
:10E5500011121102EF00BF0306120702EF00CD03F4
:10E560000D120C01EF00EB0312121002EF00140465
:10E570000B120D02EF002D0414121402EF005A04C6
:10E5800011121202EF00810411121202EF00A8040E
:10E590000F120F02EF00CA0412131302EF00F5046A
:10E5A00010121102EF0019050F121002EF003B05C7
:10E5B0000E120F04EF005B0510121103EF007F0530
:10E5C0000F120F04EF00A10516121604EF00D30579
:10E5D00013121000EF00FE0510121004EF002206C7
:10E5E00011120F01EF0049060A170700EF00660637
:10E5F00003120704EF006D060A1707FFF0008A06F2
:10E600000A090B02F00096060E010DFF04009806A1
:10E6100004040804EF009A060B0D0D02F400AC068A
:10E620000D120D01EF00CA060B0D0C02F400DC0602
:10E630000E120D02EF00FC060C0D0D02F400100787
:10E6400008120602EF0022070E120D01F400420725
:10E650000C120D01EF005D0705120502EF006907BE
:10E66000091706FFEF0083070D120C01EF00A10749
:10E6700005120502EF00AD07130D1401F400CC07DD
:10E680000C0D0D01F400E0070C0D0D02F400F40771
:10E690000E120E00F40014080D120D02F4003208E0
:10E6A000090D0801F40041080C0D0C01F400550897
:10E6B00007100602F10063080C0D0D02F400770844
:10E6C0000B0D0C03F4008908110D1103F400A508CB
:10E6D0000E0D0C00F400BC080E120B00F400DC0858
:10E6E0000C0D0C01F400F00808170803EF000709EF
:10E6F00006170601EF001909091708FFF000330992
:10E700000B050E03F6000C618618630C30C218610D
:10E710000000C300CF3CE28A20018C031806601879
:10E72000C03183FF87FF03180C6018C02303FF8FDD
:10E73000FF02300C6018806300C60000803F03FCBD
:10E74000327391998CCC06603E007E01FC0CEC4348
:10E75000621B119D9C7FC1F8020010018000000126
:10E7600083C060FC1830C20C18C1833038CC03F170
:10E77000003C400018F0063F018C3023060C60C3BB
:10E780000E30C0FC100F0001E03F818C1860C30602
:10E79000301F00E01F01DCD86D81EC0E607387CF65
:10E7A000E63E38FEA00306040C18183030606060A6
:10E7B000C0C0C0C0C0C0C0C0406060200406060227
:10E7C00003030303030303030606060C0C181830A7
:10E7D0002060C00C0C497F3C3C6C000300300300FF
:10E7E00030FFFFFF0600600600C00C0077226CFFC0
:10E7F000F0FC00403008060100C020180402008030
:10E80000401008020100C0200007C0FE1C738330C6
:10E810003603603603C07C07C06C06C0EC0CE3878F
:10E82000F03E00020C77EFC1830C183061C3060C78
:10E83000186003F01FE0E1C703180C003001800EE0
:10E84000007007807807803801C006001FFCFFE0D9
:10E8500007C0FE1C730330300300E07C07C00E00CD
:10E860006006C06C0CE1C7F83E0000600600E01EC8
:10E8700003E06C0CC18C30C61CC18FFFFFE0180395
:10E88000003003000FF87FC6003001001BC0FF06F8
:10E890001C606003001800C00C6063860FE03E003F
:10E8A00003C0FE1C73833006006787FCF0EE06C0D1
:10E8B0006C06C04C0CE187F83E003FFBFFC00C002B
:10E8C000C00C00C006006006007003003003801812
:10E8D00001C00C00E00007C0FE1C73033033033896
:10E8E00061FC3FC70E606C06C06C0CE1C7F83E00CF
:10E8F00007C1FE38730360360360360770F3FE1EEF
:10E90000600E00CC1CE387F03C0039C00000000022
:10E9100039C01C700000000000071C208630000079
:10E9200001C03C0F81E07C03800F001F003E0038D7
:10E9300000407FFBFF8000000FFF7FF02001C00739
:10E94000C00F800F001C03E0781F03C038000000D8
:10E950000F87F9C3B03C0600C0300C0301C0300C77
:10E96000018000000000300600003F8001FFE00F42
:10E9700001E03800E0E000C38781CE1FB19871C389
:10E98000618386C6060F0C0C3E30306C6061D8C1C6
:10E990008731C71C61F7F063CF80E00000F0000012
:10E9A000FFE0007F000000380078007C00FC00DC05
:10E9B00001CC018C038C030C060C0E0E0FFE1FFE07
:10E9C000180638063006700660070FF81FF8603822
:10E9D000C031806300CE03180C3FF07FF0C073009D
:10E9E0006600CC019806701CFFF1FF8001F807FE5D
:10E9F0000E0E1C033803300060006000C000C00031
:10EA0000C000C000C006C00CE01C70783FF01F8042
:10EA10000FF81FFC180E18071803180338033003EB
:10EA20003003300370067006600C600C6018E078EC
:10EA3000FFE0FF800FFF1FFE1800180018001800ED
:10EA4000380030003FFC3FF870007000600060004C
:10EA50006000E000FFF8FFF80FFE3FFC6000C0011F
:10EA60008003000E0018003FF07FE1C00380060025
:10EA70000C0018007000C001800001F807FE0E0FA6
:10EA800018033003700060006000C07FC07EC002C9
:10EA9000C006C006E00E601E783C3FE40F840C0107
:10EAA0008E00C600E300618030C018E00C600E3FAD
:10EAB000FE1FFF1C018E01C600E300618031C018FB
:10EAC000C01C600C000C718618638C30C31C6186FE
:10EAD00018E300001801800C006003003801800C6E
:10EAE0000060030038018C0C6063071C707F01F02C
:10EAF000000C038701C180E0606018700638039C39
:10EB000000CE0037800F70078C01C3806060181C36
:10EB100006030380E0C0183007000C0380600C017E
:10EB200080300E0180300601C0380600C018070092
:10EB3000FFFFFC0E0071E00F1E00F1E01E1E01E160
:10EB4000E0363B0363306E330EC330CC3318C6312E
:10EB50008C6331C6331861E18E1E18C1C18C1C381C
:10EB60000C018F00C78063E071F030D818EE0C63A1
:10EB70000631C718E30C318C1CC6066303F180F123
:10EB8000C078C03C600E0001F803FF0383C38063BC
:10EB9000003B800D8006C003C001E000F000F800DB
:10EBA0006C003600318030F0783FF007E0000FF85D
:10EBB0003FF86038C031806300CE03180E3FF87F05
:10EBC000E1C0038006000C0018007000C001800046
:10EBD00000FC01FFC0F07870063801CC0036000D53
:10EBE0008003C000F0003C001B0006C003381DC6B7
:10EBF00003E1E0F03FFE03F1C000200FFC1FFE1810
:10EC0000071803180318033806300C3FF83FF87054
:10EC10001C700C600C600C6018E018C018C01C035D
:10EC2000F81FF87038C0330066000C001E001FC0CB
:10EC30000FF001F000EC00D801B00670387FE03F23
:10EC400000FFFFFFF07001C0060018006003800C99
:10EC5000003000C003001C0060018006001800E0C6
:10EC600000180338033007300630067006700E6057
:10EC70000C600C600CE00CC01CC018C018C038E060
:10EC8000707FE01F80C00FC01B807300C6030C069E
:10EC90001818307060C0E381C6019C033006E00D97
:10ECA000801E003C007000C0701F01C06C0F03B0DC
:10ECB0003C0CC1F07306C18C3B0630C630C718C38C
:10ECC00018670CE1983306E0DC1B03606C0781E0F9
:10ECD0001C0780701C018070000700E0E0380C0EFB
:10ECE00001C38018E00398003600078000F0001E82
:10ECF0000007C001DC0073801C30030700C06038CF
:10ED00000E0E00C0E006600C701C70383070386069
:10ED100018C01DC01F800F000E000E000E000C005A
:10ED20000C000C001C0018000FFF87FF8001C001C1
:10ED3000C001C001C001C001C001C001C001C001CB
:10ED4000C001C001C000C000C000FFF87FFC000788
:10ED5000C1E060180C0300C0301C06018060180E72
:10ED60000300C0300C060180601E0780936C92493E
:10ED700024DB240781E018060180C0300C0301C0A9
:10ED80006018060180E0300C0300C060181E0F8080
:10ED90000301C0D836198463198360C0FFFCE623E1
:10EDA00007C3FCE39830060187F3C6C0D83B0E7F4B
:10EDB00077CC0C006003003001800CF07FC38738F3
:10EDC0001980CC06603203B019C1CE1C7FC37C0011
:10EDD0000F83F8E3B83607C0300600C0181B863F23
:10EDE000C3E0000C006001800600183E61FF0E3C8D
:10EDF000707180CE073018C063018C0E38787FC0E8
:10EE0000FB0007C1FE3877036037FFFFFC00C00C32
:10EE100006E1C7F83E00070F1C18187E7E30303020
:10EE2000306060606060C0C003CC3FA1C78E0E3010
:10EE300038C0C603180C607181C70E0FF81E60033E
:10EE4000800C30707F80F8000C00C00C018018012D
:10EE50009E1FF1C7383303303307306606606606FD
:10EE600060C60C18C00018C63318C63198C6000119
:10EE700080C0000000181C0C0603018180C06030B7
:10EE800018180C0603038783800C00600300300110
:10EE9000800C186183383381B80FC077031830C1F4
:10EEA000870C1860E3030018C66318C63318C63110
:10EEB00098C6001BE3C3FDFCF1E19C183303066018
:10EEC000C0CC183B83066060CC0C1983033060E62D
:10EED0000C181BE1FF3C7383303303307706606608
:10EEE0000660660C60C007C1FE387703603E03C051
:10EEF0003C06C06C0EE1C7F83E000CF03FE0E1C7F5
:10EF0000031C0C603180CE073818E0E3C70FF87798
:10EF1000C18006001800600380000F98FFCE3CE01F
:10EF2000E603701B01980CC066073878FF83CC009D
:10EF30006007003801800C001B8FCF07030180C0E1
:10EF4000E06030180C06000FC1FF307603600780C8
:10EF50003F807E006C06E0CFF83E00183067EFC6B9
:10EF60000C3060C1830C183C3830330330370660F6
:10EF70006606606606C0EC0CC3CFFC7CC0C0781B84
:10EF80000360C618C619C3306C0D81E03C0300C194
:10EF9000C3E1E1B0F0D878CC6C663663333099B019
:10EFA00058D82C781C3C0E1C060E000C1C30E0E3DC
:10EFB000019807C00E003001E00F8073018C0C38FF
:10EFC0006060180C606183860C1C603180CC03305B
:10EFD0000D803600F0038006003000C00600F0030C
:10EFE00080001FF1FF00700C0180300600C0180384
:10EFF00000600FFCFFC0070E1818181830303030B2
:10F0000060E0E0606060C0C0C0C0C0F0600C3082F2
:10F0100008618410430C208618410430C2000006A9
:10F020000780C06030180C0C060301C0E06060303F
:10F03000180C0C060301838380380F823883E03874
:10F0400000000000003E5B4F5B3E3E6B4F6B3E1C82
:10F050003E7C3E1C183C7E3C181C577D571C1C5E99
:10F060007F5E1C00183C1800FFE7C3E7FF00182470
:10F070001800FFE7DBE7FF30483A060E262979291A
:10F0800026407F050507407F05253F5A3CE73C5A4F
:10F090007F3E1C1C08081C1C3E7F14227F22145F2C
:10F0A0005F005F5F06097F017F006689956A606087
:10F0B00060606094A2FFA29408047E040810207E81
:10F0C000201008082A1C08081C2A08081E10101006
:10F0D000100C1E0C1E0C30383E3830060E3E0E064C
:10F0E000000000000000005F00000007000700149F
:10F0F0007F147F14242A7F2A12231308646236495E
:10F100005620500008070300001C22410000412245
:10F110001C002A1C7F1C2A08083E0808008070304A
:10F1200000080808080800006060002010080402B9
:10F130003E5149453E00427F4000724949494621BF
:10F1400041494D331814127F1027454545393C4A33
:10F15000494931412111090736494949364649494A
:10F16000291E000014000000403400000008142292
:10F170004114141414140041221408020159090600
:10F180003E415D594E7C1211127C7F494949363E01
:10F19000414141227F4141413E7F494949417F09E7
:10F1A0000909013E414151737F0808087F00417FF2
:10F1B00041002040413F017F081422417F404040F0
:10F1C000407F021C027F7F0408107F3E4141413E88
:10F1D0007F090909063E4151215E7F09192946260A
:10F1E0004949493203017F01033F4040403F1F200E
:10F1F00040201F3F4038403F6314081463030478E5
:10F2000004036159494D43007F4141410204081004
:10F2100020004141417F040201020440404040403F
:10F22000000307080020545478407F2844443838AD
:10F2300044444428384444287F385454541800081F
:10F240007E090218A4A49C787F0804047800447DF9
:10F2500040002040403D007F1028440000417F4096
:10F26000007C047804787C080404783844444438EA
:10F27000FC1824241818242418FC7C0804040848CA
:10F280005454542404043F44243C4040207C1C201B
:10F2900040201C3C4030403C44281028444C909076
:10F2A000907C4464544C44000836410000007700D0
:10F2B00000004136080002010204023C2623263CDD
:10F2C0001EA1A161123A4040207A38545455592168
:10F2D0005555794122545478422155547840205450
:10F2E0005579400C1E52721239555555593954549E
:10F2F000545939555454580000457C410002457D0D
:10F30000420001457C407D1211127DF0282528F035
:10F310007C545545002054547C547C0A097F493262
:10F32000494949323A4444443A324A4848303A41D9
:10F3300041217A3A42402078009DA0A07D3D424282
:10F34000423D3D4040403D3C24FF2424487E49430B
:10F35000662B2FFC2F2BFF0929F620C0887E09037E
:10F3600020545479410000447D413048484A3238A5
:10F370004040227A007A0A0A727D0D19317D2629D1
:10F38000292F28262929292630484D4020380808C9
:10F39000080808080808382F10C8ACBA2F102834FD
:10F3A000FA00007B000008142A142222142A1408F0
:10F3B0005500550055AA55AA55AAFF55FF55FF00FF
:10F3C0000000FF00101010FF00141414FF001010B4
:10F3D000FF00FF1010F010F0141414FC001414F7C8
:10F3E00000FF0000FF00FF1414F404FC14141710B5
:10F3F0001F10101F101F1414141F00101010F00005
:10F400000000001F101010101F10101010F010003E
:10F410000000FF101010101010101010FF1000004E
:10F4200000FF140000FF00FF00001F10170000FC89
:10F4300004F414141710171414F404F40000FF005B
:10F44000F714141414141414F700F71414141714E4
:10F4500010101F101F141414F4141010F010F000EA
:10F46000001F101F0000001F14000000FC1400000B
:10F47000F010F01010FF10FF141414FF14101010EF
:10F480001F00000000F010FFFFFFFFFFF0F0F0F0A2
:10F49000F0FFFFFF0000000000FFFF0F0F0F0F0F36
:10F4A0003844443844FC4A4A4A347E020206060282
:10F4B0007E027E0263554941633844443C04407EE9
:10F4C000201E2006027E020299A5E7A5991C2A4962
:10F4D0002A1C4C7201724C304A4D4D3030487848ED
:10F4E00030BC625A463D3E494949007E0101017ED9
:10F4F0002A2A2A2A2A44445F444440514A4440402C
:10F50000444A51400000FF0103E080FF000008086A
:10F510006B6B083612362436060F090F06000018EA
:10F52000180000001010003040FF0101001F010111
:10F530001E00191D1712003C3C3C3C00000000005E
:10F5400000000000000000000000000000000000BB
:10F55000A1B33F0265D43F02D9A73F0253AE3F0299
:10F5600055AE3F0287AE3F0263AE3F0275AE3F022B
:10F5700095AD3F0253AE3F027DB03F027BB03F02EC
:10F580009FAE3F02DDAE3F0217AF3F025DAF3F02CD
:10F5900079AF3F02FBAF3F02000000000000000017
:10F5A0000000000000000000A1B33F0265D43F024C
:10F5B00045BC3F02DBB63F0207BC3F02FBB73F0240
:10F5C000B3BA3F025BBA3F0295AD3F0207B73F02B5
:10F5D0007DB03F0281BB3F02DFB93F025FB93F020E
:10F5E0009BB83F025DAF3F0279AF3F02FBAF3F02E6
:10F5F000D9A73F02D9A73F02090180961180FF3A9F
:10F6000081550A3601082A04000000F02B0400008E
:10F6100000F021800A13800A2980FF00000000000A
:10F62000000000000BBD3F0273BD3F02A1B33F02CB
:10F6300065D43F0245BC3F02DBB63F0207BC3F0238
:10F64000FBB73F02B3BA3F025BBA3F0295AD3F0240
:10F6500007B73F020DBD3F0281BB3F02DFB93F024A
:10F660005FB93F029BB83F025DAF3F0279AF3F02F7
:10F67000FBAF3F023DBE3F025DBE3F020000000007
:10F6800000000000C9BD3F02AFBE3F02A1B33F0270
:10F6900065D43F0245BC3F02DBB63F0207BC3F02D8
:10F6A000FBB73F02B3BA3F025BBA3F0295AD3F02E0
:10F6B00007B73F02CBBD3F0281BB3F02DFB93F022C
:10F6C0005FB93F029BB83F025DAF3F0279AF3F0297
:10F6D000FBAF3F023DBE3F025DBE3F0200000000A7
:10F6E0000000000051CB3F0257CB3F0295CB3F02B9
:10F6F00065CB3F0253CB3F0200000000000000003A
:10F70000DBD03F02D1D03F02C7D03F02BDD03F0285
:10F71000B1D03F02A5D03F0241D33F0249D33F02BF
:10F7200099D03F0291D03F0287D03F027DD03F0267
:10F7300079D33F020000000000000000F9D03F0232
:10F7400043D13F021BD13F02FBD03F0223D13F02F6
:10F750002BD13F0233D13F023BD13F0200000000DA
:10F760000000000011D23F0201D23F0203D23F024B
:10F7700061707000000000000000000001D33F0233
:10F780000BD33F0215D33F021FD33F0229D33F02C1
:10F7900035D33F0241D33F0249D33F0251D33F0209
:10F7A0005DD33F0265D33F026FD33F0279D33F025F
:10F7B000000810182028303825592D256D2D256476
:10F7C0005425483A254D3A2553257A0061736374D0
:10F7D000696D65000000000000000000D5D63F0202
:10F7E00041D73F0219D73F0265D43F02E9D63F0215
:10F7F00005D73F02F7D63F0213D73F02D7D63F02C5
:10F80000DBD63F02000000000000000085D73F0269
:10F81000EDD73F02C3D73F0265D43F02B5D73F02C1
:10F8200087D73F0297D73F02E7D73F02A7D73F02CC
:10F830007FD73F020000000000000000EFD83F0229
:10F84000E5D83F02DBD83F0291D83F02CFD83F0234
:10F85000C3D83F0241D33F0249D33F02B7D83F024A
:10F86000AFD83F02A5D83F029BD83F0279D33F02D1
:10F87000005245454E54206D616C6C6F632073756A
:10F8800063636565646564002F746D702F6A656ECF
:10F890006B696E732D4743432D31302D7069706550
:10F8A0006C696E652D34385F32303230313132342C
:10F8B0005F313630363138303633392F7372632F3B
:10F8C0006E65776C69622F6E65776C69622F6C6903
:10F8D00062632F7374646C69622F72616E642E634D
:10F8E0000000000069AD3F0241CB3F02E5D03F027E
:10F8F000F1D23F0251D43F022DD53F029DD63F02A7
:08F90000C1D63F02F9D83F0215
:10F9080000000002BCFE3F028CAD071000000000A2
:10F9180000000000000000000000000000000000DF
:10F9280000000000000000000000000000000000CF
:10F9380000000000000000000000000000000000BF
:10F9480000000000000000000000000000000000AF
:10F95800000000000000000000000000000000009F
:10F96800000000000000000000000000E4AF0710E5
:04F97800000000008B
:10FFBE000200100000A05F0888A05F0878A73F022B
:10FFCE0001000A00FFFFFFFFFFFF00000102030414
:10FFDE0005060708090A0B0C0D0E0F10111213144B
:0EFFEE0015161718191A1B1C1D1E1F203E0089
:04FFFC0078563412ED
:04000005085FA018D8
:00000001FF
